{
  "contractName": "AuthContract",
  "abi": [
    {
      "anonymous": false,
      "inputs": [
        {
          "indexed": true,
          "internalType": "address",
          "name": "user",
          "type": "address"
        },
        {
          "indexed": false,
          "internalType": "bool",
          "name": "isUser",
          "type": "bool"
        }
      ],
      "name": "OnlyUserModifierExecuted",
      "type": "event"
    },
    {
      "inputs": [
        {
          "internalType": "address",
          "name": "",
          "type": "address"
        }
      ],
      "name": "userDocuments",
      "outputs": [
        {
          "internalType": "string",
          "name": "name",
          "type": "string"
        },
        {
          "internalType": "string",
          "name": "dateOfBirth",
          "type": "string"
        },
        {
          "internalType": "string",
          "name": "addressInfo",
          "type": "string"
        },
        {
          "internalType": "string",
          "name": "documentNumber",
          "type": "string"
        },
        {
          "internalType": "string",
          "name": "documentHash",
          "type": "string"
        }
      ],
      "stateMutability": "view",
      "type": "function",
      "constant": true
    },
    {
      "inputs": [
        {
          "internalType": "address",
          "name": "",
          "type": "address"
        },
        {
          "internalType": "uint256",
          "name": "",
          "type": "uint256"
        }
      ],
      "name": "userRequests",
      "outputs": [
        {
          "internalType": "address",
          "name": "verifier",
          "type": "address"
        },
        {
          "internalType": "enum AuthContract.RequestStatus",
          "name": "status",
          "type": "uint8"
        },
        {
          "internalType": "bool",
          "name": "requestName",
          "type": "bool"
        },
        {
          "internalType": "bool",
          "name": "requestDOB",
          "type": "bool"
        },
        {
          "internalType": "bool",
          "name": "requestAddress",
          "type": "bool"
        }
      ],
      "stateMutability": "view",
      "type": "function",
      "constant": true
    },
    {
      "inputs": [
        {
          "internalType": "address",
          "name": "",
          "type": "address"
        }
      ],
      "name": "userRoles",
      "outputs": [
        {
          "internalType": "enum AuthContract.UserRole",
          "name": "",
          "type": "uint8"
        }
      ],
      "stateMutability": "view",
      "type": "function",
      "constant": true
    },
    {
      "inputs": [
        {
          "internalType": "uint256",
          "name": "",
          "type": "uint256"
        }
      ],
      "name": "users",
      "outputs": [
        {
          "internalType": "address",
          "name": "",
          "type": "address"
        }
      ],
      "stateMutability": "view",
      "type": "function",
      "constant": true
    },
    {
      "inputs": [
        {
          "internalType": "address",
          "name": "",
          "type": "address"
        },
        {
          "internalType": "address",
          "name": "",
          "type": "address"
        }
      ],
      "name": "verifierDocumentAccess",
      "outputs": [
        {
          "internalType": "string",
          "name": "name",
          "type": "string"
        },
        {
          "internalType": "string",
          "name": "dateOfBirth",
          "type": "string"
        },
        {
          "internalType": "string",
          "name": "addressInfo",
          "type": "string"
        },
        {
          "internalType": "string",
          "name": "documentNumber",
          "type": "string"
        },
        {
          "internalType": "string",
          "name": "documentHash",
          "type": "string"
        }
      ],
      "stateMutability": "view",
      "type": "function",
      "constant": true
    },
    {
      "inputs": [
        {
          "internalType": "uint8",
          "name": "role",
          "type": "uint8"
        }
      ],
      "name": "registerUser",
      "outputs": [],
      "stateMutability": "nonpayable",
      "type": "function"
    },
    {
      "inputs": [
        {
          "internalType": "address",
          "name": "user",
          "type": "address"
        },
        {
          "internalType": "bool",
          "name": "requestName",
          "type": "bool"
        },
        {
          "internalType": "bool",
          "name": "requestDOB",
          "type": "bool"
        },
        {
          "internalType": "bool",
          "name": "requestAddress",
          "type": "bool"
        }
      ],
      "name": "requestDocumentAccess",
      "outputs": [],
      "stateMutability": "nonpayable",
      "type": "function"
    },
    {
      "inputs": [
        {
          "internalType": "address",
          "name": "user",
          "type": "address"
        }
      ],
      "name": "getUserRequests",
      "outputs": [
        {
          "components": [
            {
              "internalType": "address",
              "name": "verifier",
              "type": "address"
            },
            {
              "internalType": "enum AuthContract.RequestStatus",
              "name": "status",
              "type": "uint8"
            },
            {
              "internalType": "bool",
              "name": "requestName",
              "type": "bool"
            },
            {
              "internalType": "bool",
              "name": "requestDOB",
              "type": "bool"
            },
            {
              "internalType": "bool",
              "name": "requestAddress",
              "type": "bool"
            }
          ],
          "internalType": "struct AuthContract.DocumentRequest[]",
          "name": "",
          "type": "tuple[]"
        }
      ],
      "stateMutability": "view",
      "type": "function",
      "constant": true
    },
    {
      "inputs": [
        {
          "internalType": "address",
          "name": "verifier",
          "type": "address"
        },
        {
          "internalType": "uint256",
          "name": "requestIndex",
          "type": "uint256"
        }
      ],
      "name": "approveDocumentAccess",
      "outputs": [],
      "stateMutability": "nonpayable",
      "type": "function"
    },
    {
      "inputs": [
        {
          "internalType": "address",
          "name": "verifier",
          "type": "address"
        },
        {
          "internalType": "uint256",
          "name": "requestIndex",
          "type": "uint256"
        }
      ],
      "name": "rejectDocumentAccess",
      "outputs": [],
      "stateMutability": "nonpayable",
      "type": "function"
    },
    {
      "inputs": [
        {
          "internalType": "string",
          "name": "name",
          "type": "string"
        },
        {
          "internalType": "string",
          "name": "dateOfBirth",
          "type": "string"
        },
        {
          "internalType": "string",
          "name": "addressInfo",
          "type": "string"
        },
        {
          "internalType": "string",
          "name": "documentNumber",
          "type": "string"
        },
        {
          "internalType": "string",
          "name": "documentHash",
          "type": "string"
        }
      ],
      "name": "addUserDocument",
      "outputs": [],
      "stateMutability": "nonpayable",
      "type": "function"
    },
    {
      "inputs": [
        {
          "internalType": "address",
          "name": "verifier",
          "type": "address"
        },
        {
          "internalType": "address",
          "name": "user",
          "type": "address"
        }
      ],
      "name": "getVerifierDocumentData",
      "outputs": [
        {
          "components": [
            {
              "internalType": "string",
              "name": "name",
              "type": "string"
            },
            {
              "internalType": "string",
              "name": "dateOfBirth",
              "type": "string"
            },
            {
              "internalType": "string",
              "name": "addressInfo",
              "type": "string"
            },
            {
              "internalType": "string",
              "name": "documentNumber",
              "type": "string"
            },
            {
              "internalType": "string",
              "name": "documentHash",
              "type": "string"
            }
          ],
          "internalType": "struct AuthContract.DocumentInfo",
          "name": "",
          "type": "tuple"
        }
      ],
      "stateMutability": "view",
      "type": "function",
      "constant": true
    },
    {
      "inputs": [],
      "name": "getVerifierAllRequests",
      "outputs": [
        {
          "components": [
            {
              "internalType": "address",
              "name": "userAddress",
              "type": "address"
            },
            {
              "internalType": "enum AuthContract.RequestStatus",
              "name": "status",
              "type": "uint8"
            },
            {
              "internalType": "string",
              "name": "name",
              "type": "string"
            },
            {
              "internalType": "string",
              "name": "dateOfBirth",
              "type": "string"
            },
            {
              "internalType": "string",
              "name": "addressInfo",
              "type": "string"
            },
            {
              "internalType": "string",
              "name": "documentNumber",
              "type": "string"
            },
            {
              "internalType": "string",
              "name": "documentHash",
              "type": "string"
            }
          ],
          "internalType": "struct AuthContract.RequestData[]",
          "name": "",
          "type": "tuple[]"
        }
      ],
      "stateMutability": "view",
      "type": "function",
      "constant": true
    },
    {
      "inputs": [
        {
          "internalType": "uint256",
          "name": "requestIndex",
          "type": "uint256"
        },
        {
          "internalType": "bool",
          "name": "shareName",
          "type": "bool"
        },
        {
          "internalType": "bool",
          "name": "shareDOB",
          "type": "bool"
        },
        {
          "internalType": "bool",
          "name": "shareAddress",
          "type": "bool"
        }
      ],
      "name": "updateDocumentAccess",
      "outputs": [],
      "stateMutability": "nonpayable",
      "type": "function"
    }
  ],
  "bytecode": "0x608060405234801561001057600080fd5b50614a0b806100206000396000f3fe608060405234801561001057600080fd5b50600436106100ea5760003560e01c8063b337cf741161008c578063e19835ec11610066578063e19835ec1461028b578063eda81e0a146102a7578063f1becfc7146102d7578063fc3c8e41146102f3576100ea565b8063b337cf7414610223578063d58bc05814610253578063e10bfcae1461026f576100ea565b8063365b98b2116100c8578063365b98b214610173578063468fb78d146101a357806374d5e100146101bf5780639258b3d4146101ef576100ea565b806302b8c8cd146100ef578063127182fa1461010b578063263cb6b61461013f575b600080fd5b6101096004803603810190610104919061365e565b610311565b005b610125600480360381019061012091906136e9565b610545565b6040516101369594939291906137b9565b60405180910390f35b61015960048036038101906101549190613865565b610830565b60405161016a959493929190613946565b60405180910390f35b61018d60048036038101906101889190613999565b6108d3565b60405161019a91906139c6565b60405180910390f35b6101bd60048036038101906101b89190613a0d565b610912565b005b6101d960048036038101906101d49190613a74565b610c82565b6040516101e69190613ae9565b60405180910390f35b61020960048036038101906102049190613a74565b610ca2565b60405161021a9594939291906137b9565b60405180910390f35b61023d60048036038101906102389190613a74565b610f80565b60405161024a9190613c48565b60405180910390f35b61026d60048036038101906102689190613c6a565b6110fc565b005b61028960048036038101906102849190613865565b6113fe565b005b6102a560048036038101906102a09190613e06565b611c16565b005b6102c160048036038101906102bc91906136e9565b611dac565b6040516102ce9190613fe9565b60405180910390f35b6102f160048036038101906102ec9190613865565b61211d565b005b6102fb612b51565b6040516103089190614185565b60405180910390f35b60006002811115610325576103246138b4565b5b6000803373ffffffffffffffffffffffffffffffffffffffff1673ffffffffffffffffffffffffffffffffffffffff16815260200190815260200160002060009054906101000a900460ff166002811115610383576103826138b4565b5b146103c3576040517f08c379a00000000000000000000000000000000000000000000000000000000081526004016103ba906141f3565b60405180910390fd5b600060028111156103d7576103d66138b4565b5b60ff168160ff161015801561040457506002808111156103fa576103f96138b4565b5b60ff168160ff1611155b610443576040517f08c379a000000000000000000000000000000000000000000000000000000000815260040161043a9061425f565b60405180910390fd5b8060ff166002811115610459576104586138b4565b5b6000803373ffffffffffffffffffffffffffffffffffffffff1673ffffffffffffffffffffffffffffffffffffffff16815260200190815260200160002060006101000a81548160ff021916908360028111156104b9576104b86138b4565b5b0217905550600160028111156104d2576104d16138b4565b5b60ff168160ff1603610542576004339080600181540180825580915050600190039060005260206000200160009091909190916101000a81548173ffffffffffffffffffffffffffffffffffffffff021916908373ffffffffffffffffffffffffffffffffffffffff1602179055505b50565b600360205281600052604060002060205280600052604060002060009150915050806000018054610575906142ae565b80601f01602080910402602001604051908101604052809291908181526020018280546105a1906142ae565b80156105ee5780601f106105c3576101008083540402835291602001916105ee565b820191906000526020600020905b8154815290600101906020018083116105d157829003601f168201915b505050505090806001018054610603906142ae565b80601f016020809104026020016040519081016040528092919081815260200182805461062f906142ae565b801561067c5780601f106106515761010080835404028352916020019161067c565b820191906000526020600020905b81548152906001019060200180831161065f57829003601f168201915b505050505090806002018054610691906142ae565b80601f01602080910402602001604051908101604052809291908181526020018280546106bd906142ae565b801561070a5780601f106106df5761010080835404028352916020019161070a565b820191906000526020600020905b8154815290600101906020018083116106ed57829003601f168201915b50505050509080600301805461071f906142ae565b80601f016020809104026020016040519081016040528092919081815260200182805461074b906142ae565b80156107985780601f1061076d57610100808354040283529160200191610798565b820191906000526020600020905b81548152906001019060200180831161077b57829003601f168201915b5050505050908060040180546107ad906142ae565b80601f01602080910402602001604051908101604052809291908181526020018280546107d9906142ae565b80156108265780601f106107fb57610100808354040283529160200191610826565b820191906000526020600020905b81548152906001019060200180831161080957829003601f168201915b5050505050905085565b6001602052816000526040600020818154811061084c57600080fd5b90600052602060002001600091509150508060000160009054906101000a900473ffffffffffffffffffffffffffffffffffffffff16908060000160149054906101000a900460ff16908060000160159054906101000a900460ff16908060000160169054906101000a900460ff16908060000160179054906101000a900460ff16905085565b600481815481106108e357600080fd5b906000526020600020016000915054906101000a900473ffffffffffffffffffffffffffffffffffffffff1681565b60016002811115610926576109256138b4565b5b6000803373ffffffffffffffffffffffffffffffffffffffff1673ffffffffffffffffffffffffffffffffffffffff16815260200190815260200160002060009054906101000a900460ff166002811115610984576109836138b4565b5b146109c4576040517f08c379a00000000000000000000000000000000000000000000000000000000081526004016109bb90614351565b60405180910390fd5b83600160003373ffffffffffffffffffffffffffffffffffffffff1673ffffffffffffffffffffffffffffffffffffffff1681526020019081526020016000208054905011610a48576040517f08c379a0000000000000000000000000000000000000000000000000000000008152600401610a3f906143bd565b60405180910390fd5b60006002811115610a5c57610a5b6138b4565b5b600160003373ffffffffffffffffffffffffffffffffffffffff1673ffffffffffffffffffffffffffffffffffffffff1681526020019081526020016000208581548110610aad57610aac6143dd565b5b9060005260206000200160000160149054906101000a900460ff166002811115610ada57610ad96138b4565b5b14610b1a576040517f08c379a0000000000000000000000000000000000000000000000000000000008152600401610b1190614458565b60405180910390fd5b82600160003373ffffffffffffffffffffffffffffffffffffffff1673ffffffffffffffffffffffffffffffffffffffff1681526020019081526020016000208581548110610b6c57610b6b6143dd565b5b9060005260206000200160000160156101000a81548160ff02191690831515021790555081600160003373ffffffffffffffffffffffffffffffffffffffff1673ffffffffffffffffffffffffffffffffffffffff1681526020019081526020016000208581548110610be257610be16143dd565b5b9060005260206000200160000160166101000a81548160ff02191690831515021790555080600160003373ffffffffffffffffffffffffffffffffffffffff1673ffffffffffffffffffffffffffffffffffffffff1681526020019081526020016000208581548110610c5857610c576143dd565b5b9060005260206000200160000160176101000a81548160ff02191690831515021790555050505050565b60006020528060005260406000206000915054906101000a900460ff1681565b6002602052806000526040600020600091509050806000018054610cc5906142ae565b80601f0160208091040260200160405190810160405280929190818152602001828054610cf1906142ae565b8015610d3e5780601f10610d1357610100808354040283529160200191610d3e565b820191906000526020600020905b815481529060010190602001808311610d2157829003601f168201915b505050505090806001018054610d53906142ae565b80601f0160208091040260200160405190810160405280929190818152602001828054610d7f906142ae565b8015610dcc5780601f10610da157610100808354040283529160200191610dcc565b820191906000526020600020905b815481529060010190602001808311610daf57829003601f168201915b505050505090806002018054610de1906142ae565b80601f0160208091040260200160405190810160405280929190818152602001828054610e0d906142ae565b8015610e5a5780601f10610e2f57610100808354040283529160200191610e5a565b820191906000526020600020905b815481529060010190602001808311610e3d57829003601f168201915b505050505090806003018054610e6f906142ae565b80601f0160208091040260200160405190810160405280929190818152602001828054610e9b906142ae565b8015610ee85780601f10610ebd57610100808354040283529160200191610ee8565b820191906000526020600020905b815481529060010190602001808311610ecb57829003601f168201915b505050505090806004018054610efd906142ae565b80601f0160208091040260200160405190810160405280929190818152602001828054610f29906142ae565b8015610f765780601f10610f4b57610100808354040283529160200191610f76565b820191906000526020600020905b815481529060010190602001808311610f5957829003601f168201915b5050505050905085565b6060600160008373ffffffffffffffffffffffffffffffffffffffff1673ffffffffffffffffffffffffffffffffffffffff168152602001908152602001600020805480602002602001604051908101604052809291908181526020016000905b828210156110f1578382906000526020600020016040518060a00160405290816000820160009054906101000a900473ffffffffffffffffffffffffffffffffffffffff1673ffffffffffffffffffffffffffffffffffffffff1673ffffffffffffffffffffffffffffffffffffffff1681526020016000820160149054906101000a900460ff16600281111561107b5761107a6138b4565b5b600281111561108d5761108c6138b4565b5b81526020016000820160159054906101000a900460ff161515151581526020016000820160169054906101000a900460ff161515151581526020016000820160179054906101000a900460ff16151515158152505081526020019060010190610fe1565b505050509050919050565b60028081111561110f5761110e6138b4565b5b6000803373ffffffffffffffffffffffffffffffffffffffff1673ffffffffffffffffffffffffffffffffffffffff16815260200190815260200160002060009054906101000a900460ff16600281111561116d5761116c6138b4565b5b146111ad576040517f08c379a00000000000000000000000000000000000000000000000000000000081526004016111a4906144ea565b60405180910390fd5b600160028111156111c1576111c06138b4565b5b6000808673ffffffffffffffffffffffffffffffffffffffff1673ffffffffffffffffffffffffffffffffffffffff16815260200190815260200160002060009054906101000a900460ff16600281111561121f5761121e6138b4565b5b1461125f576040517f08c379a000000000000000000000000000000000000000000000000000000000815260040161125690614556565b60405180910390fd5b60006040518060a001604052803373ffffffffffffffffffffffffffffffffffffffff1681526020016000600281111561129c5761129b6138b4565b5b8152602001851515815260200184151581526020018315158152509050600160008673ffffffffffffffffffffffffffffffffffffffff1673ffffffffffffffffffffffffffffffffffffffff168152602001908152602001600020819080600181540180825580915050600190039060005260206000200160009091909190915060008201518160000160006101000a81548173ffffffffffffffffffffffffffffffffffffffff021916908373ffffffffffffffffffffffffffffffffffffffff16021790555060208201518160000160146101000a81548160ff021916908360028111156113905761138f6138b4565b5b021790555060408201518160000160156101000a81548160ff02191690831515021790555060608201518160000160166101000a81548160ff02191690831515021790555060808201518160000160176101000a81548160ff02191690831515021790555050505050505050565b60016002811115611412576114116138b4565b5b6000803373ffffffffffffffffffffffffffffffffffffffff1673ffffffffffffffffffffffffffffffffffffffff16815260200190815260200160002060009054906101000a900460ff1660028111156114705761146f6138b4565b5b146114b0576040517f08c379a00000000000000000000000000000000000000000000000000000000081526004016114a790614351565b60405180910390fd5b80600160003373ffffffffffffffffffffffffffffffffffffffff1673ffffffffffffffffffffffffffffffffffffffff1681526020019081526020016000208054905011611534576040517f08c379a000000000000000000000000000000000000000000000000000000000815260040161152b906143bd565b60405180910390fd5b8173ffffffffffffffffffffffffffffffffffffffff16600160003373ffffffffffffffffffffffffffffffffffffffff1673ffffffffffffffffffffffffffffffffffffffff168152602001908152602001600020828154811061159c5761159b6143dd565b5b9060005260206000200160000160009054906101000a900473ffffffffffffffffffffffffffffffffffffffff1673ffffffffffffffffffffffffffffffffffffffff1614611620576040517f08c379a0000000000000000000000000000000000000000000000000000000008152600401611617906145c2565b60405180910390fd5b60006002811115611634576116336138b4565b5b600160003373ffffffffffffffffffffffffffffffffffffffff1673ffffffffffffffffffffffffffffffffffffffff1681526020019081526020016000208281548110611685576116846143dd565b5b9060005260206000200160000160149054906101000a900460ff1660028111156116b2576116b16138b4565b5b146116f2576040517f08c379a00000000000000000000000000000000000000000000000000000000081526004016116e990614458565b60405180910390fd5b6002600160003373ffffffffffffffffffffffffffffffffffffffff1673ffffffffffffffffffffffffffffffffffffffff1681526020019081526020016000208281548110611745576117446143dd565b5b9060005260206000200160000160146101000a81548160ff02191690836002811115611774576117736138b4565b5b02179055506000600260003373ffffffffffffffffffffffffffffffffffffffff1673ffffffffffffffffffffffffffffffffffffffff1681526020019081526020016000209050600160003373ffffffffffffffffffffffffffffffffffffffff1673ffffffffffffffffffffffffffffffffffffffff168152602001908152602001600020828154811061180d5761180c6143dd565b5b9060005260206000200160000160159054906101000a900460ff1661184157604051806020016040528060008152506118cf565b806000018054611850906142ae565b80601f016020809104026020016040519081016040528092919081815260200182805461187c906142ae565b80156118c95780601f1061189e576101008083540402835291602001916118c9565b820191906000526020600020905b8154815290600101906020018083116118ac57829003601f168201915b50505050505b8160000190816118df919061478e565b50600160003373ffffffffffffffffffffffffffffffffffffffff1673ffffffffffffffffffffffffffffffffffffffff1681526020019081526020016000208281548110611931576119306143dd565b5b9060005260206000200160000160169054906101000a900460ff1661196557604051806020016040528060008152506119f3565b806001018054611974906142ae565b80601f01602080910402602001604051908101604052809291908181526020018280546119a0906142ae565b80156119ed5780601f106119c2576101008083540402835291602001916119ed565b820191906000526020600020905b8154815290600101906020018083116119d057829003601f168201915b50505050505b816001019081611a03919061478e565b50600160003373ffffffffffffffffffffffffffffffffffffffff1673ffffffffffffffffffffffffffffffffffffffff1681526020019081526020016000208281548110611a5557611a546143dd565b5b9060005260206000200160000160179054906101000a900460ff16611a895760405180602001604052806000815250611b17565b806002018054611a98906142ae565b80601f0160208091040260200160405190810160405280929190818152602001828054611ac4906142ae565b8015611b115780601f10611ae657610100808354040283529160200191611b11565b820191906000526020600020905b815481529060010190602001808311611af457829003601f168201915b50505050505b816002019081611b27919061478e565b5080600360008573ffffffffffffffffffffffffffffffffffffffff1673ffffffffffffffffffffffffffffffffffffffff16815260200190815260200160002060003373ffffffffffffffffffffffffffffffffffffffff1673ffffffffffffffffffffffffffffffffffffffff16815260200190815260200160002060008201816000019081611bb99190614876565b5060018201816001019081611bce9190614876565b5060028201816002019081611be39190614876565b5060038201816003019081611bf89190614876565b5060048201816004019081611c0d9190614876565b50905050505050565b60016002811115611c2a57611c296138b4565b5b6000803373ffffffffffffffffffffffffffffffffffffffff1673ffffffffffffffffffffffffffffffffffffffff16815260200190815260200160002060009054906101000a900460ff166002811115611c8857611c876138b4565b5b14611cc8576040517f08c379a0000000000000000000000000000000000000000000000000000000008152600401611cbf90614351565b60405180910390fd5b60006040518060a0016040528087815260200186815260200185815260200184815260200183815250905080600260003373ffffffffffffffffffffffffffffffffffffffff1673ffffffffffffffffffffffffffffffffffffffff1681526020019081526020016000206000820151816000019081611d48919061478e565b506020820151816001019081611d5e919061478e565b506040820151816002019081611d74919061478e565b506060820151816003019081611d8a919061478e565b506080820151816004019081611da0919061478e565b50905050505050505050565b611db461357d565b600360008473ffffffffffffffffffffffffffffffffffffffff1673ffffffffffffffffffffffffffffffffffffffff16815260200190815260200160002060008373ffffffffffffffffffffffffffffffffffffffff1673ffffffffffffffffffffffffffffffffffffffff1681526020019081526020016000206040518060a0016040529081600082018054611e4b906142ae565b80601f0160208091040260200160405190810160405280929190818152602001828054611e77906142ae565b8015611ec45780601f10611e9957610100808354040283529160200191611ec4565b820191906000526020600020905b815481529060010190602001808311611ea757829003601f168201915b50505050508152602001600182018054611edd906142ae565b80601f0160208091040260200160405190810160405280929190818152602001828054611f09906142ae565b8015611f565780601f10611f2b57610100808354040283529160200191611f56565b820191906000526020600020905b815481529060010190602001808311611f3957829003601f168201915b50505050508152602001600282018054611f6f906142ae565b80601f0160208091040260200160405190810160405280929190818152602001828054611f9b906142ae565b8015611fe85780601f10611fbd57610100808354040283529160200191611fe8565b820191906000526020600020905b815481529060010190602001808311611fcb57829003601f168201915b50505050508152602001600382018054612001906142ae565b80601f016020809104026020016040519081016040528092919081815260200182805461202d906142ae565b801561207a5780601f1061204f5761010080835404028352916020019161207a565b820191906000526020600020905b81548152906001019060200180831161205d57829003601f168201915b50505050508152602001600482018054612093906142ae565b80601f01602080910402602001604051908101604052809291908181526020018280546120bf906142ae565b801561210c5780601f106120e15761010080835404028352916020019161210c565b820191906000526020600020905b8154815290600101906020018083116120ef57829003601f168201915b505050505081525050905092915050565b60016002811115612131576121306138b4565b5b6000803373ffffffffffffffffffffffffffffffffffffffff1673ffffffffffffffffffffffffffffffffffffffff16815260200190815260200160002060009054906101000a900460ff16600281111561218f5761218e6138b4565b5b146121cf576040517f08c379a00000000000000000000000000000000000000000000000000000000081526004016121c690614351565b60405180910390fd5b80600160003373ffffffffffffffffffffffffffffffffffffffff1673ffffffffffffffffffffffffffffffffffffffff1681526020019081526020016000208054905011612253576040517f08c379a000000000000000000000000000000000000000000000000000000000815260040161224a906143bd565b60405180910390fd5b8173ffffffffffffffffffffffffffffffffffffffff16600160003373ffffffffffffffffffffffffffffffffffffffff1673ffffffffffffffffffffffffffffffffffffffff16815260200190815260200160002082815481106122bb576122ba6143dd565b5b9060005260206000200160000160009054906101000a900473ffffffffffffffffffffffffffffffffffffffff1673ffffffffffffffffffffffffffffffffffffffff161461233f576040517f08c379a0000000000000000000000000000000000000000000000000000000008152600401612336906145c2565b60405180910390fd5b60006002811115612353576123526138b4565b5b600160003373ffffffffffffffffffffffffffffffffffffffff1673ffffffffffffffffffffffffffffffffffffffff16815260200190815260200160002082815481106123a4576123a36143dd565b5b9060005260206000200160000160149054906101000a900460ff1660028111156123d1576123d06138b4565b5b14612411576040517f08c379a000000000000000000000000000000000000000000000000000000000815260040161240890614458565b60405180910390fd5b60018060003373ffffffffffffffffffffffffffffffffffffffff1673ffffffffffffffffffffffffffffffffffffffff1681526020019081526020016000208281548110612463576124626143dd565b5b9060005260206000200160000160146101000a81548160ff02191690836002811115612492576124916138b4565b5b02179055506000600160003373ffffffffffffffffffffffffffffffffffffffff1673ffffffffffffffffffffffffffffffffffffffff16815260200190815260200160002082815481106124ea576124e96143dd565b5b906000526020600020016040518060a00160405290816000820160009054906101000a900473ffffffffffffffffffffffffffffffffffffffff1673ffffffffffffffffffffffffffffffffffffffff1673ffffffffffffffffffffffffffffffffffffffff1681526020016000820160149054906101000a900460ff16600281111561257a576125796138b4565b5b600281111561258c5761258b6138b4565b5b81526020016000820160159054906101000a900460ff161515151581526020016000820160169054906101000a900460ff161515151581526020016000820160179054906101000a900460ff161515151581525050905060006040518060a00160405280836040015161260e57604051806020016040528060008152506126da565b600260003373ffffffffffffffffffffffffffffffffffffffff1673ffffffffffffffffffffffffffffffffffffffff168152602001908152602001600020600001805461265b906142ae565b80601f0160208091040260200160405190810160405280929190818152602001828054612687906142ae565b80156126d45780601f106126a9576101008083540402835291602001916126d4565b820191906000526020600020905b8154815290600101906020018083116126b757829003601f168201915b50505050505b815260200183606001516126fd57604051806020016040528060008152506127c9565b600260003373ffffffffffffffffffffffffffffffffffffffff1673ffffffffffffffffffffffffffffffffffffffff168152602001908152602001600020600101805461274a906142ae565b80601f0160208091040260200160405190810160405280929190818152602001828054612776906142ae565b80156127c35780601f10612798576101008083540402835291602001916127c3565b820191906000526020600020905b8154815290600101906020018083116127a657829003601f168201915b50505050505b815260200183608001516127ec57604051806020016040528060008152506128b8565b600260003373ffffffffffffffffffffffffffffffffffffffff1673ffffffffffffffffffffffffffffffffffffffff1681526020019081526020016000206002018054612839906142ae565b80601f0160208091040260200160405190810160405280929190818152602001828054612865906142ae565b80156128b25780601f10612887576101008083540402835291602001916128b2565b820191906000526020600020905b81548152906001019060200180831161289557829003601f168201915b50505050505b8152602001600260003373ffffffffffffffffffffffffffffffffffffffff1673ffffffffffffffffffffffffffffffffffffffff168152602001908152602001600020600301805461290a906142ae565b80601f0160208091040260200160405190810160405280929190818152602001828054612936906142ae565b80156129835780601f1061295857610100808354040283529160200191612983565b820191906000526020600020905b81548152906001019060200180831161296657829003601f168201915b50505050508152602001600260003373ffffffffffffffffffffffffffffffffffffffff1673ffffffffffffffffffffffffffffffffffffffff16815260200190815260200160002060040180546129da906142ae565b80601f0160208091040260200160405190810160405280929190818152602001828054612a06906142ae565b8015612a535780601f10612a2857610100808354040283529160200191612a53565b820191906000526020600020905b815481529060010190602001808311612a3657829003601f168201915b5050505050815250905080600360008673ffffffffffffffffffffffffffffffffffffffff1673ffffffffffffffffffffffffffffffffffffffff16815260200190815260200160002060003373ffffffffffffffffffffffffffffffffffffffff1673ffffffffffffffffffffffffffffffffffffffff1681526020019081526020016000206000820151816000019081612aef919061478e565b506020820151816001019081612b05919061478e565b506040820151816002019081612b1b919061478e565b506060820151816003019081612b31919061478e565b506080820151816004019081612b47919061478e565b5090505050505050565b6060600280811115612b6657612b656138b4565b5b6000803373ffffffffffffffffffffffffffffffffffffffff1673ffffffffffffffffffffffffffffffffffffffff16815260200190815260200160002060009054906101000a900460ff166002811115612bc457612bc36138b4565b5b14612c04576040517f08c379a0000000000000000000000000000000000000000000000000000000008152600401612bfb906144ea565b60405180910390fd5b600080600090505b600480549050811015612e6457600060048281548110612c2f57612c2e6143dd565b5b9060005260206000200160009054906101000a900473ffffffffffffffffffffffffffffffffffffffff16905060005b600160008373ffffffffffffffffffffffffffffffffffffffff1673ffffffffffffffffffffffffffffffffffffffff16815260200190815260200160002080549050811015612e4f576000600160008473ffffffffffffffffffffffffffffffffffffffff1673ffffffffffffffffffffffffffffffffffffffff1681526020019081526020016000208281548110612cfc57612cfb6143dd565b5b906000526020600020016040518060a00160405290816000820160009054906101000a900473ffffffffffffffffffffffffffffffffffffffff1673ffffffffffffffffffffffffffffffffffffffff1673ffffffffffffffffffffffffffffffffffffffff1681526020016000820160149054906101000a900460ff166002811115612d8c57612d8b6138b4565b5b6002811115612d9e57612d9d6138b4565b5b81526020016000820160159054906101000a900460ff161515151581526020016000820160169054906101000a900460ff161515151581526020016000820160179054906101000a900460ff16151515158152505090503373ffffffffffffffffffffffffffffffffffffffff16816000015173ffffffffffffffffffffffffffffffffffffffff1603612e3b578480612e379061498d565b9550505b508080612e479061498d565b915050612c5f565b50508080612e5c9061498d565b915050612c0c565b5060008167ffffffffffffffff811115612e8157612e80613cdb565b5b604051908082528060200260200182016040528015612eba57816020015b612ea76135ac565b815260200190600190039081612e9f5790505b5090506000805b60048054905081101561357357600060048281548110612ee457612ee36143dd565b5b9060005260206000200160009054906101000a900473ffffffffffffffffffffffffffffffffffffffff16905060005b600160008373ffffffffffffffffffffffffffffffffffffffff1673ffffffffffffffffffffffffffffffffffffffff1681526020019081526020016000208054905081101561355e576000600160008473ffffffffffffffffffffffffffffffffffffffff1673ffffffffffffffffffffffffffffffffffffffff1681526020019081526020016000208281548110612fb157612fb06143dd565b5b906000526020600020016040518060a00160405290816000820160009054906101000a900473ffffffffffffffffffffffffffffffffffffffff1673ffffffffffffffffffffffffffffffffffffffff1673ffffffffffffffffffffffffffffffffffffffff1681526020016000820160149054906101000a900460ff166002811115613041576130406138b4565b5b6002811115613053576130526138b4565b5b81526020016000820160159054906101000a900460ff161515151581526020016000820160169054906101000a900460ff161515151581526020016000820160179054906101000a900460ff16151515158152505090503373ffffffffffffffffffffffffffffffffffffffff16816000015173ffffffffffffffffffffffffffffffffffffffff160361354a576000600360003373ffffffffffffffffffffffffffffffffffffffff1673ffffffffffffffffffffffffffffffffffffffff16815260200190815260200160002060008573ffffffffffffffffffffffffffffffffffffffff1673ffffffffffffffffffffffffffffffffffffffff1681526020019081526020016000206040518060a001604052908160008201805461317a906142ae565b80601f01602080910402602001604051908101604052809291908181526020018280546131a6906142ae565b80156131f35780601f106131c8576101008083540402835291602001916131f3565b820191906000526020600020905b8154815290600101906020018083116131d657829003601f168201915b5050505050815260200160018201805461320c906142ae565b80601f0160208091040260200160405190810160405280929190818152602001828054613238906142ae565b80156132855780601f1061325a57610100808354040283529160200191613285565b820191906000526020600020905b81548152906001019060200180831161326857829003601f168201915b5050505050815260200160028201805461329e906142ae565b80601f01602080910402602001604051908101604052809291908181526020018280546132ca906142ae565b80156133175780601f106132ec57610100808354040283529160200191613317565b820191906000526020600020905b8154815290600101906020018083116132fa57829003601f168201915b50505050508152602001600382018054613330906142ae565b80601f016020809104026020016040519081016040528092919081815260200182805461335c906142ae565b80156133a95780601f1061337e576101008083540402835291602001916133a9565b820191906000526020600020905b81548152906001019060200180831161338c57829003601f168201915b505050505081526020016004820180546133c2906142ae565b80601f01602080910402602001604051908101604052809291908181526020018280546133ee906142ae565b801561343b5780601f106134105761010080835404028352916020019161343b565b820191906000526020600020905b81548152906001019060200180831161341e57829003601f168201915b505050505081525050905060006040518060e001604052808673ffffffffffffffffffffffffffffffffffffffff16815260200184602001516002811115613486576134856138b4565b5b815260200184604001516134a957604051806020016040528060008152506134af565b83600001515b815260200184606001516134d257604051806020016040528060008152506134d8565b83602001515b815260200184608001516134fb5760405180602001604052806000815250613501565b83604001515b815260200183606001518152602001836080015181525090508088888151811061352e5761352d6143dd565b5b602002602001018190525086806135449061498d565b97505050505b5080806135569061498d565b915050612f14565b5050808061356b9061498d565b915050612ec1565b5081935050505090565b6040518060a0016040528060608152602001606081526020016060815260200160608152602001606081525090565b6040518060e00160405280600073ffffffffffffffffffffffffffffffffffffffff168152602001600060028111156135e8576135e76138b4565b5b815260200160608152602001606081526020016060815260200160608152602001606081525090565b6000604051905090565b600080fd5b600080fd5b600060ff82169050919050565b61363b81613625565b811461364657600080fd5b50565b60008135905061365881613632565b92915050565b6000602082840312156136745761367361361b565b5b600061368284828501613649565b91505092915050565b600073ffffffffffffffffffffffffffffffffffffffff82169050919050565b60006136b68261368b565b9050919050565b6136c6816136ab565b81146136d157600080fd5b50565b6000813590506136e3816136bd565b92915050565b60008060408385031215613700576136ff61361b565b5b600061370e858286016136d4565b925050602061371f858286016136d4565b9150509250929050565b600081519050919050565b600082825260208201905092915050565b60005b83811015613763578082015181840152602081019050613748565b60008484015250505050565b6000601f19601f8301169050919050565b600061378b82613729565b6137958185613734565b93506137a5818560208601613745565b6137ae8161376f565b840191505092915050565b600060a08201905081810360008301526137d38188613780565b905081810360208301526137e78187613780565b905081810360408301526137fb8186613780565b9050818103606083015261380f8185613780565b905081810360808301526138238184613780565b90509695505050505050565b6000819050919050565b6138428161382f565b811461384d57600080fd5b50565b60008135905061385f81613839565b92915050565b6000806040838503121561387c5761387b61361b565b5b600061388a858286016136d4565b925050602061389b85828601613850565b9150509250929050565b6138ae816136ab565b82525050565b7f4e487b7100000000000000000000000000000000000000000000000000000000600052602160045260246000fd5b600381106138f4576138f36138b4565b5b50565b6000819050613905826138e3565b919050565b6000613915826138f7565b9050919050565b6139258161390a565b82525050565b60008115159050919050565b6139408161392b565b82525050565b600060a08201905061395b60008301886138a5565b613968602083018761391c565b6139756040830186613937565b6139826060830185613937565b61398f6080830184613937565b9695505050505050565b6000602082840312156139af576139ae61361b565b5b60006139bd84828501613850565b91505092915050565b60006020820190506139db60008301846138a5565b92915050565b6139ea8161392b565b81146139f557600080fd5b50565b600081359050613a07816139e1565b92915050565b60008060008060808587031215613a2757613a2661361b565b5b6000613a3587828801613850565b9450506020613a46878288016139f8565b9350506040613a57878288016139f8565b9250506060613a68878288016139f8565b91505092959194509250565b600060208284031215613a8a57613a8961361b565b5b6000613a98848285016136d4565b91505092915050565b60038110613ab257613ab16138b4565b5b50565b6000819050613ac382613aa1565b919050565b6000613ad382613ab5565b9050919050565b613ae381613ac8565b82525050565b6000602082019050613afe6000830184613ada565b92915050565b600081519050919050565b600082825260208201905092915050565b6000819050602082019050919050565b613b39816136ab565b82525050565b613b488161390a565b82525050565b613b578161392b565b82525050565b60a082016000820151613b736000850182613b30565b506020820151613b866020850182613b3f565b506040820151613b996040850182613b4e565b506060820151613bac6060850182613b4e565b506080820151613bbf6080850182613b4e565b50505050565b6000613bd18383613b5d565b60a08301905092915050565b6000602082019050919050565b6000613bf582613b04565b613bff8185613b0f565b9350613c0a83613b20565b8060005b83811015613c3b578151613c228882613bc5565b9750613c2d83613bdd565b925050600181019050613c0e565b5085935050505092915050565b60006020820190508181036000830152613c628184613bea565b905092915050565b60008060008060808587031215613c8457613c8361361b565b5b6000613c92878288016136d4565b9450506020613ca3878288016139f8565b9350506040613cb4878288016139f8565b9250506060613cc5878288016139f8565b91505092959194509250565b600080fd5b600080fd5b7f4e487b7100000000000000000000000000000000000000000000000000000000600052604160045260246000fd5b613d138261376f565b810181811067ffffffffffffffff82111715613d3257613d31613cdb565b5b80604052505050565b6000613d45613611565b9050613d518282613d0a565b919050565b600067ffffffffffffffff821115613d7157613d70613cdb565b5b613d7a8261376f565b9050602081019050919050565b82818337600083830152505050565b6000613da9613da484613d56565b613d3b565b905082815260208101848484011115613dc557613dc4613cd6565b5b613dd0848285613d87565b509392505050565b600082601f830112613ded57613dec613cd1565b5b8135613dfd848260208601613d96565b91505092915050565b600080600080600060a08688031215613e2257613e2161361b565b5b600086013567ffffffffffffffff811115613e4057613e3f613620565b5b613e4c88828901613dd8565b955050602086013567ffffffffffffffff811115613e6d57613e6c613620565b5b613e7988828901613dd8565b945050604086013567ffffffffffffffff811115613e9a57613e99613620565b5b613ea688828901613dd8565b935050606086013567ffffffffffffffff811115613ec757613ec6613620565b5b613ed388828901613dd8565b925050608086013567ffffffffffffffff811115613ef457613ef3613620565b5b613f0088828901613dd8565b9150509295509295909350565b600082825260208201905092915050565b6000613f2982613729565b613f338185613f0d565b9350613f43818560208601613745565b613f4c8161376f565b840191505092915050565b600060a0830160008301518482036000860152613f748282613f1e565b91505060208301518482036020860152613f8e8282613f1e565b91505060408301518482036040860152613fa88282613f1e565b91505060608301518482036060860152613fc28282613f1e565b91505060808301518482036080860152613fdc8282613f1e565b9150508091505092915050565b600060208201905081810360008301526140038184613f57565b905092915050565b600081519050919050565b600082825260208201905092915050565b6000819050602082019050919050565b600060e08301600083015161404f6000860182613b30565b5060208301516140626020860182613b3f565b506040830151848203604086015261407a8282613f1e565b915050606083015184820360608601526140948282613f1e565b915050608083015184820360808601526140ae8282613f1e565b91505060a083015184820360a08601526140c88282613f1e565b91505060c083015184820360c08601526140e28282613f1e565b9150508091505092915050565b60006140fb8383614037565b905092915050565b6000602082019050919050565b600061411b8261400b565b6141258185614016565b93508360208202850161413785614027565b8060005b85811015614173578484038952815161415485826140ef565b945061415f83614103565b925060208a0199505060018101905061413b565b50829750879550505050505092915050565b6000602082019050818103600083015261419f8184614110565b905092915050565b7f5573657220616c72656164792072656769737465726564000000000000000000600082015250565b60006141dd601783613734565b91506141e8826141a7565b602082019050919050565b6000602082019050818103600083015261420c816141d0565b9050919050565b7f496e76616c696420726f6c650000000000000000000000000000000000000000600082015250565b6000614249600c83613734565b915061425482614213565b602082019050919050565b600060208201905081810360008301526142788161423c565b9050919050565b7f4e487b7100000000000000000000000000000000000000000000000000000000600052602260045260246000fd5b600060028204905060018216806142c657607f821691505b6020821081036142d9576142d861427f565b5b50919050565b7f4f6e6c792075736572732063616e2063616c6c20746869732066756e6374696f60008201527f6e00000000000000000000000000000000000000000000000000000000000000602082015250565b600061433b602183613734565b9150614346826142df565b604082019050919050565b6000602082019050818103600083015261436a8161432e565b9050919050565b7f496e76616c6964207265717565737420696e6465780000000000000000000000600082015250565b60006143a7601583613734565b91506143b282614371565b602082019050919050565b600060208201905081810360008301526143d68161439a565b9050919050565b7f4e487b7100000000000000000000000000000000000000000000000000000000600052603260045260246000fd5b7f52657175657374206973206e6f742070656e64696e6700000000000000000000600082015250565b6000614442601683613734565b915061444d8261440c565b602082019050919050565b6000602082019050818103600083015261447181614435565b9050919050565b7f4f6e6c79207665726966696572732063616e2063616c6c20746869732066756e60008201527f6374696f6e000000000000000000000000000000000000000000000000000000602082015250565b60006144d4602583613734565b91506144df82614478565b604082019050919050565b60006020820190508181036000830152614503816144c7565b9050919050565b7f496e76616c696420757365722061646472657373000000000000000000000000600082015250565b6000614540601483613734565b915061454b8261450a565b602082019050919050565b6000602082019050818103600083015261456f81614533565b9050919050565b7f496e76616c696420766572696669657200000000000000000000000000000000600082015250565b60006145ac601083613734565b91506145b782614576565b602082019050919050565b600060208201905081810360008301526145db8161459f565b9050919050565b60008190508160005260206000209050919050565b60006020601f8301049050919050565b600082821b905092915050565b6000600883026146447fffffffffffffffffffffffffffffffffffffffffffffffffffffffffffffffff82614607565b61464e8683614607565b95508019841693508086168417925050509392505050565b6000819050919050565b600061468b6146866146818461382f565b614666565b61382f565b9050919050565b6000819050919050565b6146a583614670565b6146b96146b182614692565b848454614614565b825550505050565b600090565b6146ce6146c1565b6146d981848461469c565b505050565b5b818110156146fd576146f26000826146c6565b6001810190506146df565b5050565b601f82111561474257614713816145e2565b61471c846145f7565b8101602085101561472b578190505b61473f614737856145f7565b8301826146de565b50505b505050565b600082821c905092915050565b600061476560001984600802614747565b1980831691505092915050565b600061477e8383614754565b9150826002028217905092915050565b61479782613729565b67ffffffffffffffff8111156147b0576147af613cdb565b5b6147ba82546142ae565b6147c5828285614701565b600060209050601f8311600181146147f857600084156147e6578287015190505b6147f08582614772565b865550614858565b601f198416614806866145e2565b60005b8281101561482e57848901518255600182019150602085019450602081019050614809565b8683101561484b5784890151614847601f891682614754565b8355505b6001600288020188555050505b505050505050565b60008154905061486f816142ae565b9050919050565b81810361488457505061495c565b61488d82614860565b67ffffffffffffffff8111156148a6576148a5613cdb565b5b6148b082546142ae565b6148bb828285614701565b6000601f8311600181146148ea57600084156148d8578287015490505b6148e28582614772565b865550614955565b601f1984166148f8876145e2565b9650614903866145e2565b60005b8281101561492b57848901548255600182019150600185019450602081019050614906565b868310156149485784890154614944601f891682614754565b8355505b6001600288020188555050505b5050505050505b565b7f4e487b7100000000000000000000000000000000000000000000000000000000600052601160045260246000fd5b60006149988261382f565b91507fffffffffffffffffffffffffffffffffffffffffffffffffffffffffffffffff82036149ca576149c961495e565b5b60018201905091905056fea2646970667358221220fafa7f5943e5f7d0b85cd88c80808bb7600464ddcc7dfa6c0d58e5f2530e72a264736f6c63430008130033",
  "immutableReferences": {},
  "source": "pragma solidity ^0.8.19;\r\n\r\n// SPDX-License-Identifier: MIT\r\n\r\ncontract AuthContract {\r\n    enum UserRole {\r\n        None,\r\n        User,\r\n        Verifier\r\n    }\r\n    enum RequestStatus {\r\n        Pending,\r\n        Approved,\r\n        Rejected\r\n    }\r\n\r\n    mapping(address => UserRole) public userRoles;\r\n\r\n    struct DocumentRequest {\r\n        address verifier;\r\n        RequestStatus status;\r\n        bool requestName;\r\n        bool requestDOB;\r\n        bool requestAddress;\r\n    }\r\n\r\n    struct DocumentInfo {\r\n        string name;\r\n        string dateOfBirth;\r\n        string addressInfo;\r\n        string documentNumber;\r\n        string documentHash;\r\n    }\r\n\r\n    mapping(address => DocumentRequest[]) public userRequests;\r\n    mapping(address => DocumentInfo) public userDocuments;\r\n    mapping(address => mapping(address => DocumentInfo))\r\n        public verifierDocumentAccess;\r\n    address[] public users; // Array to store user addresses\r\n\r\n    event OnlyUserModifierExecuted(address indexed user, bool isUser);\r\n    modifier onlyUser() {\r\n        require(\r\n            userRoles[msg.sender] == UserRole.User,\r\n            \"Only users can call this function\"\r\n        );\r\n\r\n        _;\r\n    }\r\n\r\n    modifier onlyVerifier() {\r\n        require(\r\n            userRoles[msg.sender] == UserRole.Verifier,\r\n            \"Only verifiers can call this function\"\r\n        );\r\n        _;\r\n    }\r\n\r\n    function registerUser(uint8 role) public {\r\n        require(\r\n            userRoles[msg.sender] == UserRole.None,\r\n            \"User already registered\"\r\n        );\r\n        require(\r\n            role >= uint8(UserRole.None) && role <= uint8(UserRole.Verifier),\r\n            \"Invalid role\"\r\n        );\r\n\r\n        userRoles[msg.sender] = UserRole(role);\r\n        if (role == uint8(UserRole.User)) {\r\n            users.push(msg.sender); // Add the user to the array when they are registered\r\n        }\r\n    }\r\n\r\n    function requestDocumentAccess(\r\n        address user,\r\n        bool requestName,\r\n        bool requestDOB,\r\n        bool requestAddress\r\n    ) public onlyVerifier {\r\n        require(userRoles[user] == UserRole.User, \"Invalid user address\");\r\n\r\n        DocumentRequest memory request = DocumentRequest({\r\n            verifier: msg.sender,\r\n            status: RequestStatus.Pending,\r\n            requestName: requestName,\r\n            requestDOB: requestDOB,\r\n            requestAddress: requestAddress\r\n        });\r\n\r\n        userRequests[user].push(request);\r\n    }\r\n\r\n    function getUserRequests(\r\n        address user\r\n    ) public view returns (DocumentRequest[] memory) {\r\n        return userRequests[user];\r\n    }\r\n\r\n    function approveDocumentAccess(\r\n        address verifier,\r\n        uint256 requestIndex\r\n    ) public onlyUser {\r\n        require(\r\n            userRequests[msg.sender].length > requestIndex,\r\n            \"Invalid request index\"\r\n        );\r\n        require(\r\n            userRequests[msg.sender][requestIndex].verifier == verifier,\r\n            \"Invalid verifier\"\r\n        );\r\n        require(\r\n            userRequests[msg.sender][requestIndex].status ==\r\n                RequestStatus.Pending,\r\n            \"Request is not pending\"\r\n        );\r\n        userRequests[msg.sender][requestIndex].status = RequestStatus.Approved;\r\n        DocumentRequest memory request = userRequests[msg.sender][requestIndex];\r\n\r\n    // Create a new DocumentInfo struct to hold the selective sharing attributes\r\n    DocumentInfo memory documentInfo = DocumentInfo({\r\n        name: request.requestName ? userDocuments[msg.sender].name : \"\",\r\n        dateOfBirth: request.requestDOB ? userDocuments[msg.sender].dateOfBirth : \"\",\r\n        addressInfo: request.requestAddress ? userDocuments[msg.sender].addressInfo : \"\",\r\n        documentNumber: userDocuments[msg.sender].documentNumber,\r\n        documentHash: userDocuments[msg.sender].documentHash\r\n    });\r\n       \r\n        verifierDocumentAccess[verifier][msg.sender] = documentInfo;\r\n    }\r\n\r\n    function rejectDocumentAccess(\r\n        address verifier,\r\n        uint256 requestIndex\r\n    ) public onlyUser {\r\n        require(\r\n            userRequests[msg.sender].length > requestIndex,\r\n            \"Invalid request index\"\r\n        );\r\n        require(\r\n            userRequests[msg.sender][requestIndex].verifier == verifier,\r\n            \"Invalid verifier\"\r\n        );\r\n        require(\r\n            userRequests[msg.sender][requestIndex].status ==\r\n                RequestStatus.Pending,\r\n            \"Request is not pending\"\r\n        );\r\n\r\n        userRequests[msg.sender][requestIndex].status = RequestStatus.Rejected;\r\n        DocumentInfo storage documentInfo = userDocuments[msg.sender];\r\n        documentInfo.name = userRequests[msg.sender][requestIndex].requestName\r\n            ? documentInfo.name\r\n            : \"\";\r\n        documentInfo.dateOfBirth = userRequests[msg.sender][requestIndex]\r\n            .requestDOB\r\n            ? documentInfo.dateOfBirth\r\n            : \"\";\r\n        documentInfo.addressInfo = userRequests[msg.sender][requestIndex]\r\n            .requestAddress\r\n            ? documentInfo.addressInfo\r\n            : \"\";\r\n        verifierDocumentAccess[verifier][msg.sender] = documentInfo;\r\n    }\r\n\r\n    function addUserDocument(\r\n        string memory name,\r\n        string memory dateOfBirth,\r\n        string memory addressInfo,\r\n        string memory documentNumber,\r\n        string memory documentHash\r\n    ) public onlyUser {\r\n        DocumentInfo memory documentInfo = DocumentInfo({\r\n            name: name,\r\n            dateOfBirth: dateOfBirth,\r\n            addressInfo: addressInfo,\r\n            documentNumber: documentNumber,\r\n            documentHash: documentHash\r\n        });\r\n\r\n        userDocuments[msg.sender] = documentInfo;\r\n    }\r\n\r\n    function getVerifierDocumentData(\r\n        address verifier,\r\n        address user\r\n    ) public view returns (DocumentInfo memory) {\r\n        return verifierDocumentAccess[verifier][user];\r\n    }\r\n\r\n    function getVerifierAllRequests()\r\n        public\r\n        view\r\n        onlyVerifier\r\n        returns (RequestData[] memory)\r\n    {\r\n        uint256 totalRequests;\r\n\r\n        // Loop through all the users to get the total number of requests\r\n        for (uint256 i = 0; i < users.length; i++) {\r\n            address user = users[i]; // Get the user address based on the index i\r\n\r\n            for (uint256 j = 0; j < userRequests[user].length; j++) {\r\n                DocumentRequest memory request = userRequests[user][j];\r\n\r\n                if (request.verifier == msg.sender) {\r\n                    totalRequests++;\r\n                }\r\n            }\r\n        }\r\n\r\n        // Create a dynamic array to store the requests\r\n        RequestData[] memory allRequests = new RequestData[](totalRequests);\r\n        uint256 index = 0;\r\n\r\n        // Loop through all the users again to collect the requests\r\n        for (uint256 i = 0; i < users.length; i++) {\r\n            address user = users[i]; // Get the user address based on the index i\r\n\r\n            for (uint256 j = 0; j < userRequests[user].length; j++) {\r\n                DocumentRequest memory request = userRequests[user][j];\r\n\r\n                if (request.verifier == msg.sender) {\r\n                    DocumentInfo memory userDocument = verifierDocumentAccess[\r\n                        msg.sender\r\n                    ][user];\r\n\r\n                    // Create a new RequestData object with the relevant information\r\n                    RequestData memory requestData = RequestData({\r\n                        userAddress: user,\r\n                        status: request.status,\r\n                        name: request.requestName ? userDocument.name : \"\",\r\n                        dateOfBirth: request.requestDOB\r\n                            ? userDocument.dateOfBirth\r\n                            : \"\",\r\n                        addressInfo: request.requestAddress\r\n                            ? userDocument.addressInfo\r\n                            : \"\",\r\n                        documentNumber: userDocument.documentNumber,\r\n                        documentHash: userDocument.documentHash\r\n                    });\r\n\r\n                    // Store the object in the dynamic array\r\n                    allRequests[index] = requestData;\r\n                    index++;\r\n                }\r\n            }\r\n        }\r\n\r\n        return allRequests;\r\n    }\r\n\r\n    // Define a new struct to hold the request data for each user\r\n    struct RequestData {\r\n        address userAddress;\r\n        RequestStatus status;\r\n        string name;\r\n        string dateOfBirth;\r\n        string addressInfo;\r\n        string documentNumber;\r\n        string documentHash;\r\n    }\r\n\r\n    function updateDocumentAccess(\r\n        uint256 requestIndex,\r\n        bool shareName,\r\n        bool shareDOB,\r\n        bool shareAddress\r\n    ) public onlyUser {\r\n        require(\r\n            userRequests[msg.sender].length > requestIndex,\r\n            \"Invalid request index\"\r\n        );\r\n        require(\r\n            userRequests[msg.sender][requestIndex].status ==\r\n                RequestStatus.Pending,\r\n            \"Request is not pending\"\r\n        );\r\n\r\n        // Update the user's document sharing preferences\r\n        userRequests[msg.sender][requestIndex].requestName = shareName;\r\n        userRequests[msg.sender][requestIndex].requestDOB = shareDOB;\r\n        userRequests[msg.sender][requestIndex].requestAddress = shareAddress;\r\n    }\r\n}\r\n",
  "sourcePath": "C:\\Users\\vassh\\Desktop\\identity-management\\contracts\\AuthContract.sol",
  "compiler": {
    "name": "solc",
    "version": "0.8.19+commit.7dd6d404.Emscripten.clang"
  },
  "schemaVersion": "3.4.14",
  "updatedAt": "2023-08-19T14:59:20.529Z",
  "networkType": "ethereum",
  "devdoc": {
    "kind": "dev",
    "methods": {},
    "version": 1
  },
  "userdoc": {
    "kind": "user",
    "methods": {},
    "version": 1
  }
}