{
  "contractName": "DocumentSharingContract",
  "abi": [
    {
      "inputs": [
        {
          "internalType": "address",
          "name": "",
          "type": "address"
        }
      ],
      "name": "addressToEmail",
      "outputs": [
        {
          "internalType": "string",
          "name": "",
          "type": "string"
        }
      ],
      "stateMutability": "view",
      "type": "function",
      "constant": true
    },
    {
      "inputs": [
        {
          "internalType": "string",
          "name": "",
          "type": "string"
        }
      ],
      "name": "emailToAddress",
      "outputs": [
        {
          "internalType": "address",
          "name": "",
          "type": "address"
        }
      ],
      "stateMutability": "view",
      "type": "function",
      "constant": true
    },
    {
      "inputs": [
        {
          "internalType": "uint256",
          "name": "",
          "type": "uint256"
        }
      ],
      "name": "registeredEmails",
      "outputs": [
        {
          "internalType": "string",
          "name": "",
          "type": "string"
        }
      ],
      "stateMutability": "view",
      "type": "function",
      "constant": true
    },
    {
      "inputs": [
        {
          "internalType": "address",
          "name": "",
          "type": "address"
        },
        {
          "internalType": "uint256",
          "name": "",
          "type": "uint256"
        }
      ],
      "name": "userDocuments",
      "outputs": [
        {
          "internalType": "string",
          "name": "documentType",
          "type": "string"
        },
        {
          "internalType": "string",
          "name": "userEmail",
          "type": "string"
        }
      ],
      "stateMutability": "view",
      "type": "function",
      "constant": true
    },
    {
      "inputs": [
        {
          "internalType": "address",
          "name": "",
          "type": "address"
        },
        {
          "internalType": "uint256",
          "name": "",
          "type": "uint256"
        }
      ],
      "name": "userRequests",
      "outputs": [
        {
          "internalType": "string",
          "name": "documentType",
          "type": "string"
        },
        {
          "internalType": "address",
          "name": "verifier",
          "type": "address"
        },
        {
          "internalType": "enum DocumentSharingContract.RequestStatus",
          "name": "status",
          "type": "uint8"
        },
        {
          "internalType": "string",
          "name": "verifierEmail",
          "type": "string"
        },
        {
          "internalType": "string",
          "name": "userEmail",
          "type": "string"
        }
      ],
      "stateMutability": "view",
      "type": "function",
      "constant": true
    },
    {
      "inputs": [
        {
          "internalType": "address",
          "name": "",
          "type": "address"
        }
      ],
      "name": "userRoles",
      "outputs": [
        {
          "internalType": "enum DocumentSharingContract.UserRole",
          "name": "",
          "type": "uint8"
        }
      ],
      "stateMutability": "view",
      "type": "function",
      "constant": true
    },
    {
      "inputs": [
        {
          "internalType": "address",
          "name": "",
          "type": "address"
        },
        {
          "internalType": "address",
          "name": "",
          "type": "address"
        },
        {
          "internalType": "string",
          "name": "",
          "type": "string"
        },
        {
          "internalType": "string",
          "name": "",
          "type": "string"
        }
      ],
      "name": "verifierDocumentAccess",
      "outputs": [
        {
          "internalType": "string",
          "name": "",
          "type": "string"
        }
      ],
      "stateMutability": "view",
      "type": "function",
      "constant": true
    },
    {
      "inputs": [
        {
          "internalType": "address",
          "name": "",
          "type": "address"
        },
        {
          "internalType": "uint256",
          "name": "",
          "type": "uint256"
        }
      ],
      "name": "verifierRequestsMapping",
      "outputs": [
        {
          "internalType": "address",
          "name": "user",
          "type": "address"
        },
        {
          "internalType": "uint256",
          "name": "requestIndex",
          "type": "uint256"
        }
      ],
      "stateMutability": "view",
      "type": "function",
      "constant": true
    },
    {
      "inputs": [
        {
          "internalType": "uint8",
          "name": "role",
          "type": "uint8"
        },
        {
          "internalType": "string",
          "name": "email",
          "type": "string"
        }
      ],
      "name": "registerUser",
      "outputs": [],
      "stateMutability": "nonpayable",
      "type": "function"
    },
    {
      "inputs": [
        {
          "internalType": "string",
          "name": "userEmail",
          "type": "string"
        },
        {
          "internalType": "string",
          "name": "documentType",
          "type": "string"
        },
        {
          "internalType": "string[]",
          "name": "attributes",
          "type": "string[]"
        }
      ],
      "name": "requestDocumentAccess",
      "outputs": [],
      "stateMutability": "nonpayable",
      "type": "function"
    },
    {
      "inputs": [
        {
          "internalType": "uint256",
          "name": "requestIndex",
          "type": "uint256"
        },
        {
          "internalType": "string[]",
          "name": "approvedKeys",
          "type": "string[]"
        }
      ],
      "name": "approveDocumentAccess",
      "outputs": [],
      "stateMutability": "nonpayable",
      "type": "function"
    },
    {
      "inputs": [
        {
          "internalType": "uint256",
          "name": "requestIndex",
          "type": "uint256"
        }
      ],
      "name": "rejectDocumentAccess",
      "outputs": [],
      "stateMutability": "nonpayable",
      "type": "function"
    },
    {
      "inputs": [
        {
          "internalType": "string",
          "name": "documentType",
          "type": "string"
        },
        {
          "internalType": "string[]",
          "name": "keys",
          "type": "string[]"
        },
        {
          "internalType": "string[]",
          "name": "values",
          "type": "string[]"
        }
      ],
      "name": "addDocument",
      "outputs": [],
      "stateMutability": "nonpayable",
      "type": "function"
    },
    {
      "inputs": [
        {
          "internalType": "uint256",
          "name": "requestIndex",
          "type": "uint256"
        },
        {
          "internalType": "string[]",
          "name": "keysToRevoke",
          "type": "string[]"
        }
      ],
      "name": "revokeDocumentAttributes",
      "outputs": [],
      "stateMutability": "nonpayable",
      "type": "function"
    },
    {
      "inputs": [
        {
          "internalType": "address",
          "name": "user",
          "type": "address"
        }
      ],
      "name": "getUserDocuments",
      "outputs": [
        {
          "internalType": "string[]",
          "name": "documentTypes",
          "type": "string[]"
        },
        {
          "internalType": "string[][]",
          "name": "keys",
          "type": "string[][]"
        },
        {
          "internalType": "string[][]",
          "name": "values",
          "type": "string[][]"
        }
      ],
      "stateMutability": "view",
      "type": "function",
      "constant": true
    },
    {
      "inputs": [],
      "name": "getVerifierRequests",
      "outputs": [
        {
          "components": [
            {
              "internalType": "string",
              "name": "documentType",
              "type": "string"
            },
            {
              "internalType": "address",
              "name": "verifier",
              "type": "address"
            },
            {
              "internalType": "enum DocumentSharingContract.RequestStatus",
              "name": "status",
              "type": "uint8"
            },
            {
              "internalType": "string[]",
              "name": "requestedAttributes",
              "type": "string[]"
            },
            {
              "internalType": "string[]",
              "name": "approvedAttributeKeys",
              "type": "string[]"
            },
            {
              "internalType": "string[]",
              "name": "approvedAttributeValues",
              "type": "string[]"
            },
            {
              "internalType": "string",
              "name": "verifierEmail",
              "type": "string"
            },
            {
              "internalType": "string",
              "name": "userEmail",
              "type": "string"
            }
          ],
          "internalType": "struct DocumentSharingContract.DocumentRequest[]",
          "name": "",
          "type": "tuple[]"
        }
      ],
      "stateMutability": "view",
      "type": "function",
      "constant": true
    },
    {
      "inputs": [
        {
          "internalType": "address",
          "name": "user",
          "type": "address"
        }
      ],
      "name": "getUserRequests",
      "outputs": [
        {
          "components": [
            {
              "internalType": "string",
              "name": "documentType",
              "type": "string"
            },
            {
              "internalType": "address",
              "name": "verifier",
              "type": "address"
            },
            {
              "internalType": "enum DocumentSharingContract.RequestStatus",
              "name": "status",
              "type": "uint8"
            },
            {
              "internalType": "string[]",
              "name": "requestedAttributes",
              "type": "string[]"
            },
            {
              "internalType": "string[]",
              "name": "approvedAttributeKeys",
              "type": "string[]"
            },
            {
              "internalType": "string[]",
              "name": "approvedAttributeValues",
              "type": "string[]"
            },
            {
              "internalType": "string",
              "name": "verifierEmail",
              "type": "string"
            },
            {
              "internalType": "string",
              "name": "userEmail",
              "type": "string"
            }
          ],
          "internalType": "struct DocumentSharingContract.DocumentRequest[]",
          "name": "",
          "type": "tuple[]"
        }
      ],
      "stateMutability": "view",
      "type": "function",
      "constant": true
    },
    {
      "inputs": [
        {
          "internalType": "string",
          "name": "prefix",
          "type": "string"
        }
      ],
      "name": "getEmailsStartsWith",
      "outputs": [
        {
          "internalType": "string[]",
          "name": "",
          "type": "string[]"
        }
      ],
      "stateMutability": "view",
      "type": "function",
      "constant": true
    }
  ],
  "bytecode": "0x608060405234801561001057600080fd5b506159c580620000216000396000f3fe608060405234801561001057600080fd5b50600436106101165760003560e01c8063996effef116100a2578063ea78dcbf11610071578063ea78dcbf1461032e578063f5237a861461035e578063f879a7821461038f578063f92362db146103ad578063fc85b165146103dd57610116565b8063996effef146102965780639a23cd50146102c6578063b337cf74146102e2578063d29bcc5c1461031257610116565b806366386596116100e957806366386596146101cc5780636d94a1ee146101e857806374d5e100146102045780637e25318f1461023457806390a4b1621461026457610116565b8063263cb6b61461011b578063312684491461014f578063448631391461017f578063577a1b921461019b575b600080fd5b6101356004803603810190610130919061406e565b6103f9565b6040516101469594939291906141c4565b60405180910390f35b6101696004803603810190610164919061422c565b610611565b6040516101769190614259565b60405180910390f35b61019960048036038101906101949190614496565b6106b1565b005b6101b560048036038101906101b0919061406e565b610d2a565b6040516101c39291906144f2565b60405180910390f35b6101e660048036038101906101e19190614529565b610e7b565b005b61020260048036038101906101fd9190614556565b611115565b005b61021e6004803603810190610219919061422c565b61186b565b60405161022b9190614645565b60405180910390f35b61024e60048036038101906102499190614529565b61188b565b60405161025b9190614259565b60405180910390f35b61027e6004803603810190610279919061422c565b611937565b60405161028d939291906148b4565b60405180910390f35b6102b060048036038101906102ab9190614900565b612047565b6040516102bd9190614949565b60405180910390f35b6102e060048036038101906102db919061496b565b61233d565b005b6102fc60048036038101906102f7919061422c565b612597565b6040516103099190614bc5565b60405180910390f35b61032c60048036038101906103279190614c20565b612c28565b005b61034860048036038101906103439190614900565b612f65565b6040516103559190614c7c565b60405180910390f35b6103786004803603810190610373919061406e565b612fae565b604051610386929190614ca6565b60405180910390f35b61039761300f565b6040516103a49190614bc5565b60405180910390f35b6103c760048036038101906103c29190614ccf565b61376f565b6040516103d49190614259565b60405180910390f35b6103f760048036038101906103f29190614496565b613862565b005b6001602052816000526040600020818154811061041557600080fd5b90600052602060002090600702016000915091505080600001805461043990614d9d565b80601f016020809104026020016040519081016040528092919081815260200182805461046590614d9d565b80156104b25780601f10610487576101008083540402835291602001916104b2565b820191906000526020600020905b81548152906001019060200180831161049557829003601f168201915b5050505050908060010160009054906101000a900473ffffffffffffffffffffffffffffffffffffffff16908060010160149054906101000a900460ff169080600501805461050090614d9d565b80601f016020809104026020016040519081016040528092919081815260200182805461052c90614d9d565b80156105795780601f1061054e57610100808354040283529160200191610579565b820191906000526020600020905b81548152906001019060200180831161055c57829003601f168201915b50505050509080600601805461058e90614d9d565b80601f01602080910402602001604051908101604052809291908181526020018280546105ba90614d9d565b80156106075780601f106105dc57610100808354040283529160200191610607565b820191906000526020600020905b8154815290600101906020018083116105ea57829003601f168201915b5050505050905085565b6005602052806000526040600020600091509050805461063090614d9d565b80601f016020809104026020016040519081016040528092919081815260200182805461065c90614d9d565b80156106a95780601f1061067e576101008083540402835291602001916106a9565b820191906000526020600020905b81548152906001019060200180831161068c57829003601f168201915b505050505081565b600160028111156106c5576106c461414d565b5b6000803373ffffffffffffffffffffffffffffffffffffffff1673ffffffffffffffffffffffffffffffffffffffff16815260200190815260200160002060009054906101000a900460ff1660028111156107235761072261414d565b5b14610763576040517f08c379a000000000000000000000000000000000000000000000000000000000815260040161075a90614e40565b60405180910390fd5b600160003373ffffffffffffffffffffffffffffffffffffffff1673ffffffffffffffffffffffffffffffffffffffff1681526020019081526020016000208054905082106107e7576040517f08c379a00000000000000000000000000000000000000000000000000000000081526004016107de90614eac565b60405180910390fd5b6000600160003373ffffffffffffffffffffffffffffffffffffffff1673ffffffffffffffffffffffffffffffffffffffff168152602001908152602001600020838154811061083a57610839614ecc565b5b906000526020600020906007020190506000600381111561085e5761085d61414d565b5b8160010160149054906101000a900460ff1660038111156108825761088161414d565b5b146108c2576040517f08c379a00000000000000000000000000000000000000000000000000000000081526004016108b990614f47565b60405180910390fd5b818160030190805190602001906108da929190613e7f565b5060018160010160146101000a81548160ff021916908360038111156109035761090261414d565b5b021790555060005b600260003373ffffffffffffffffffffffffffffffffffffffff1673ffffffffffffffffffffffffffffffffffffffff16815260200190815260200160002080549050811015610d245781600001604051602001610969919061500a565b60405160208183030381529060405280519060200120600260003373ffffffffffffffffffffffffffffffffffffffff1673ffffffffffffffffffffffffffffffffffffffff16815260200190815260200160002082815481106109d0576109cf614ecc565b5b90600052602060002090600402016000016040516020016109f1919061500a565b6040516020818303038152906040528051906020012003610d115760005b8260030180549050811015610d0b576000836003018281548110610a3657610a35614ecc565b5b906000526020600020018054610a4b90614d9d565b80601f0160208091040260200160405190810160405280929190818152602001828054610a7790614d9d565b8015610ac45780601f10610a9957610100808354040283529160200191610ac4565b820191906000526020600020905b815481529060010190602001808311610aa757829003601f168201915b505050505090506000600260003373ffffffffffffffffffffffffffffffffffffffff1673ffffffffffffffffffffffffffffffffffffffff1681526020019081526020016000208481548110610b1e57610b1d614ecc565b5b906000526020600020906004020160030182604051610b3d9190615052565b90815260200160405180910390208054610b5690614d9d565b80601f0160208091040260200160405190810160405280929190818152602001828054610b8290614d9d565b8015610bcf5780601f10610ba457610100808354040283529160200191610bcf565b820191906000526020600020905b815481529060010190602001808311610bb257829003601f168201915b505050505090508460040181908060018154018082558091505060019003906000526020600020016000909190919091509081610c0c9190615200565b5080600360008760010160009054906101000a900473ffffffffffffffffffffffffffffffffffffffff1673ffffffffffffffffffffffffffffffffffffffff1673ffffffffffffffffffffffffffffffffffffffff16815260200190815260200160002060003373ffffffffffffffffffffffffffffffffffffffff1673ffffffffffffffffffffffffffffffffffffffff16815260200190815260200160002086600001604051610cbf919061500a565b908152602001604051809103902083604051610cdb9190615052565b90815260200160405180910390209081610cf59190615200565b5050508080610d0390615301565b915050610a0f565b50610d24565b8080610d1c90615301565b91505061090b565b50505050565b60026020528160005260406000208181548110610d4657600080fd5b906000526020600020906004020160009150915050806000018054610d6a90614d9d565b80601f0160208091040260200160405190810160405280929190818152602001828054610d9690614d9d565b8015610de35780601f10610db857610100808354040283529160200191610de3565b820191906000526020600020905b815481529060010190602001808311610dc657829003601f168201915b505050505090806002018054610df890614d9d565b80601f0160208091040260200160405190810160405280929190818152602001828054610e2490614d9d565b8015610e715780601f10610e4657610100808354040283529160200191610e71565b820191906000526020600020905b815481529060010190602001808311610e5457829003601f168201915b5050505050905082565b60016002811115610e8f57610e8e61414d565b5b6000803373ffffffffffffffffffffffffffffffffffffffff1673ffffffffffffffffffffffffffffffffffffffff16815260200190815260200160002060009054906101000a900460ff166002811115610eed57610eec61414d565b5b14610f2d576040517f08c379a0000000000000000000000000000000000000000000000000000000008152600401610f2490614e40565b60405180910390fd5b80600160003373ffffffffffffffffffffffffffffffffffffffff1673ffffffffffffffffffffffffffffffffffffffff1681526020019081526020016000208054905011610fb1576040517f08c379a0000000000000000000000000000000000000000000000000000000008152600401610fa890614eac565b60405180910390fd5b60006003811115610fc557610fc461414d565b5b600160003373ffffffffffffffffffffffffffffffffffffffff1673ffffffffffffffffffffffffffffffffffffffff168152602001908152602001600020828154811061101657611015614ecc565b5b906000526020600020906007020160010160149054906101000a900460ff1660038111156110475761104661414d565b5b14611087576040517f08c379a000000000000000000000000000000000000000000000000000000000815260040161107e90614f47565b60405180910390fd5b6002600160003373ffffffffffffffffffffffffffffffffffffffff1673ffffffffffffffffffffffffffffffffffffffff16815260200190815260200160002082815481106110da576110d9614ecc565b5b906000526020600020906007020160010160146101000a81548160ff0219169083600381111561110d5761110c61414d565b5b021790555050565b6002808111156111285761112761414d565b5b6000803373ffffffffffffffffffffffffffffffffffffffff1673ffffffffffffffffffffffffffffffffffffffff16815260200190815260200160002060009054906101000a900460ff1660028111156111865761118561414d565b5b146111c6576040517f08c379a00000000000000000000000000000000000000000000000000000000081526004016111bd906153bb565b60405180910390fd5b60006006846040516111d89190615052565b908152602001604051809103902060009054906101000a900473ffffffffffffffffffffffffffffffffffffffff169050600073ffffffffffffffffffffffffffffffffffffffff168173ffffffffffffffffffffffffffffffffffffffff1603611278576040517f08c379a000000000000000000000000000000000000000000000000000000000815260040161126f90615427565b60405180910390fd5b6001600281111561128c5761128b61414d565b5b6000808373ffffffffffffffffffffffffffffffffffffffff1673ffffffffffffffffffffffffffffffffffffffff16815260200190815260200160002060009054906101000a900460ff1660028111156112ea576112e961414d565b5b1461132a576040517f08c379a000000000000000000000000000000000000000000000000000000000815260040161132190615493565b60405180910390fd5b6000600160008373ffffffffffffffffffffffffffffffffffffffff1673ffffffffffffffffffffffffffffffffffffffff168152602001908152602001600020805490509050600160008373ffffffffffffffffffffffffffffffffffffffff1673ffffffffffffffffffffffffffffffffffffffff1681526020019081526020016000206040518061010001604052808681526020013373ffffffffffffffffffffffffffffffffffffffff168152602001600060038111156113f2576113f161414d565b5b8152602001858152602001600067ffffffffffffffff81111561141857611417614280565b5b60405190808252806020026020018201604052801561144b57816020015b60608152602001906001900390816114365790505b508152602001600067ffffffffffffffff81111561146c5761146b614280565b5b60405190808252806020026020018201604052801561149f57816020015b606081526020019060019003908161148a5790505b508152602001600560003373ffffffffffffffffffffffffffffffffffffffff1673ffffffffffffffffffffffffffffffffffffffff16815260200190815260200160002080546114ef90614d9d565b80601f016020809104026020016040519081016040528092919081815260200182805461151b90614d9d565b80156115685780601f1061153d57610100808354040283529160200191611568565b820191906000526020600020905b81548152906001019060200180831161154b57829003601f168201915b50505050508152602001600560008673ffffffffffffffffffffffffffffffffffffffff1673ffffffffffffffffffffffffffffffffffffffff16815260200190815260200160002080546115bc90614d9d565b80601f01602080910402602001604051908101604052809291908181526020018280546115e890614d9d565b80156116355780601f1061160a57610100808354040283529160200191611635565b820191906000526020600020905b81548152906001019060200180831161161857829003601f168201915b50505050508152509080600181540180825580915050600190039060005260206000209060070201600090919091909150600082015181600001908161167b9190615200565b5060208201518160010160006101000a81548173ffffffffffffffffffffffffffffffffffffffff021916908373ffffffffffffffffffffffffffffffffffffffff16021790555060408201518160010160146101000a81548160ff021916908360038111156116ee576116ed61414d565b5b0217905550606082015181600201908051906020019061170f929190613e7f565b50608082015181600301908051906020019061172c929190613e7f565b5060a0820151816004019080519060200190611749929190613e7f565b5060c082015181600501908161175f9190615200565b5060e08201518160060190816117759190615200565b505050600060405180604001604052808473ffffffffffffffffffffffffffffffffffffffff168152602001838152509050600460003373ffffffffffffffffffffffffffffffffffffffff1673ffffffffffffffffffffffffffffffffffffffff16815260200190815260200160002081908060018154018082558091505060019003906000526020600020906002020160009091909190915060008201518160000160006101000a81548173ffffffffffffffffffffffffffffffffffffffff021916908373ffffffffffffffffffffffffffffffffffffffff160217905550602082015181600101555050505050505050565b60006020528060005260406000206000915054906101000a900460ff1681565b6007818154811061189b57600080fd5b9060005260206000200160009150905080546118b690614d9d565b80601f01602080910402602001604051908101604052809291908181526020018280546118e290614d9d565b801561192f5780601f106119045761010080835404028352916020019161192f565b820191906000526020600020905b81548152906001019060200180831161191257829003601f168201915b505050505081565b6060806060600160028111156119505761194f61414d565b5b6000803373ffffffffffffffffffffffffffffffffffffffff1673ffffffffffffffffffffffffffffffffffffffff16815260200190815260200160002060009054906101000a900460ff1660028111156119ae576119ad61414d565b5b146119ee576040517f08c379a00000000000000000000000000000000000000000000000000000000081526004016119e590614e40565b60405180910390fd5b3373ffffffffffffffffffffffffffffffffffffffff168473ffffffffffffffffffffffffffffffffffffffff1614611a5c576040517f08c379a0000000000000000000000000000000000000000000000000000000008152600401611a5390615525565b60405180910390fd5b6000600260008673ffffffffffffffffffffffffffffffffffffffff1673ffffffffffffffffffffffffffffffffffffffff1681526020019081526020016000208054905090508067ffffffffffffffff811115611abd57611abc614280565b5b604051908082528060200260200182016040528015611af057816020015b6060815260200190600190039081611adb5790505b5093508067ffffffffffffffff811115611b0d57611b0c614280565b5b604051908082528060200260200182016040528015611b4057816020015b6060815260200190600190039081611b2b5790505b5092508067ffffffffffffffff811115611b5d57611b5c614280565b5b604051908082528060200260200182016040528015611b9057816020015b6060815260200190600190039081611b7b5790505b50915060005b8181101561203e57600260008773ffffffffffffffffffffffffffffffffffffffff1673ffffffffffffffffffffffffffffffffffffffff1681526020019081526020016000208181548110611bef57611bee614ecc565b5b90600052602060002090600402016000018054611c0b90614d9d565b80601f0160208091040260200160405190810160405280929190818152602001828054611c3790614d9d565b8015611c845780601f10611c5957610100808354040283529160200191611c84565b820191906000526020600020905b815481529060010190602001808311611c6757829003601f168201915b5050505050858281518110611c9c57611c9b614ecc565b5b6020026020010181905250600260008773ffffffffffffffffffffffffffffffffffffffff1673ffffffffffffffffffffffffffffffffffffffff1681526020019081526020016000208181548110611cf857611cf7614ecc565b5b9060005260206000209060040201600101805480602002602001604051908101604052809291908181526020016000905b82821015611dd5578382906000526020600020018054611d4890614d9d565b80601f0160208091040260200160405190810160405280929190818152602001828054611d7490614d9d565b8015611dc15780601f10611d9657610100808354040283529160200191611dc1565b820191906000526020600020905b815481529060010190602001808311611da457829003601f168201915b505050505081526020019060010190611d29565b50505050848281518110611dec57611deb614ecc565b5b6020026020010181905250838181518110611e0a57611e09614ecc565b5b60200260200101515167ffffffffffffffff811115611e2c57611e2b614280565b5b604051908082528060200260200182016040528015611e5f57816020015b6060815260200190600190039081611e4a5790505b50838281518110611e7357611e72614ecc565b5b602002602001018190525060005b848281518110611e9457611e93614ecc565b5b60200260200101515181101561202a57600260008873ffffffffffffffffffffffffffffffffffffffff1673ffffffffffffffffffffffffffffffffffffffff1681526020019081526020016000208281548110611ef557611ef4614ecc565b5b9060005260206000209060040201600301858381518110611f1957611f18614ecc565b5b60200260200101518281518110611f3357611f32614ecc565b5b6020026020010151604051611f489190615052565b90815260200160405180910390208054611f6190614d9d565b80601f0160208091040260200160405190810160405280929190818152602001828054611f8d90614d9d565b8015611fda5780601f10611faf57610100808354040283529160200191611fda565b820191906000526020600020905b815481529060010190602001808311611fbd57829003601f168201915b5050505050848381518110611ff257611ff1614ecc565b5b6020026020010151828151811061200c5761200b614ecc565b5b6020026020010181905250808061202290615301565b915050611e81565b50808061203690615301565b915050611b96565b50509193909250565b60606000805b6007805490508110156121315761210a6007828154811061207157612070614ecc565b5b90600052602060002001805461208690614d9d565b80601f01602080910402602001604051908101604052809291908181526020018280546120b290614d9d565b80156120ff5780601f106120d4576101008083540402835291602001916120ff565b820191906000526020600020905b8154815290600101906020018083116120e257829003601f168201915b505050505085613da1565b1561211e57818061211a90615301565b9250505b808061212990615301565b91505061204d565b5060008167ffffffffffffffff81111561214e5761214d614280565b5b60405190808252806020026020018201604052801561218157816020015b606081526020019060019003908161216c5790505b5090506000805b60078054905081101561233157612245600782815481106121ac576121ab614ecc565b5b9060005260206000200180546121c190614d9d565b80601f01602080910402602001604051908101604052809291908181526020018280546121ed90614d9d565b801561223a5780601f1061220f5761010080835404028352916020019161223a565b820191906000526020600020905b81548152906001019060200180831161221d57829003601f168201915b505050505087613da1565b1561231e576007818154811061225e5761225d614ecc565b5b90600052602060002001805461227390614d9d565b80601f016020809104026020016040519081016040528092919081815260200182805461229f90614d9d565b80156122ec5780601f106122c1576101008083540402835291602001916122ec565b820191906000526020600020905b8154815290600101906020018083116122cf57829003601f168201915b505050505083838151811061230457612303614ecc565b5b6020026020010181905250818061231a90615301565b9250505b808061232990615301565b915050612188565b50819350505050919050565b600160028111156123515761235061414d565b5b6000803373ffffffffffffffffffffffffffffffffffffffff1673ffffffffffffffffffffffffffffffffffffffff16815260200190815260200160002060009054906101000a900460ff1660028111156123af576123ae61414d565b5b146123ef576040517f08c379a00000000000000000000000000000000000000000000000000000000081526004016123e690614e40565b60405180910390fd5b8051825114612433576040517f08c379a000000000000000000000000000000000000000000000000000000000815260040161242a906155b7565b60405180910390fd5b6000600260003373ffffffffffffffffffffffffffffffffffffffff1673ffffffffffffffffffffffffffffffffffffffff1681526020019081526020016000206001816001815401808255809150500390600052602060002090600402019050838160000190816124a59190615200565b50600560003373ffffffffffffffffffffffffffffffffffffffff1673ffffffffffffffffffffffffffffffffffffffff1681526020019081526020016000208160020190816124f59190615602565b508281600101908051906020019061250e929190613e7f565b5060005b83518110156125905782818151811061252e5761252d614ecc565b5b60200260200101518260030185838151811061254d5761254c614ecc565b5b60200260200101516040516125629190615052565b9081526020016040518091039020908161257c9190615200565b50808061258890615301565b915050612512565b5050505050565b6060600160028111156125ad576125ac61414d565b5b6000803373ffffffffffffffffffffffffffffffffffffffff1673ffffffffffffffffffffffffffffffffffffffff16815260200190815260200160002060009054906101000a900460ff16600281111561260b5761260a61414d565b5b1461264b576040517f08c379a000000000000000000000000000000000000000000000000000000000815260040161264290614e40565b60405180910390fd5b3373ffffffffffffffffffffffffffffffffffffffff168273ffffffffffffffffffffffffffffffffffffffff16146126b9576040517f08c379a00000000000000000000000000000000000000000000000000000000081526004016126b09061575c565b60405180910390fd5b600160008373ffffffffffffffffffffffffffffffffffffffff1673ffffffffffffffffffffffffffffffffffffffff168152602001908152602001600020805480602002602001604051908101604052809291908181526020016000905b82821015612c1d57838290600052602060002090600702016040518061010001604052908160008201805461274c90614d9d565b80601f016020809104026020016040519081016040528092919081815260200182805461277890614d9d565b80156127c55780601f1061279a576101008083540402835291602001916127c5565b820191906000526020600020905b8154815290600101906020018083116127a857829003601f168201915b505050505081526020016001820160009054906101000a900473ffffffffffffffffffffffffffffffffffffffff1673ffffffffffffffffffffffffffffffffffffffff1673ffffffffffffffffffffffffffffffffffffffff1681526020016001820160149054906101000a900460ff1660038111156128495761284861414d565b5b600381111561285b5761285a61414d565b5b815260200160028201805480602002602001604051908101604052809291908181526020016000905b828210156129305783829060005260206000200180546128a390614d9d565b80601f01602080910402602001604051908101604052809291908181526020018280546128cf90614d9d565b801561291c5780601f106128f15761010080835404028352916020019161291c565b820191906000526020600020905b8154815290600101906020018083116128ff57829003601f168201915b505050505081526020019060010190612884565b50505050815260200160038201805480602002602001604051908101604052809291908181526020016000905b82821015612a0957838290600052602060002001805461297c90614d9d565b80601f01602080910402602001604051908101604052809291908181526020018280546129a890614d9d565b80156129f55780601f106129ca576101008083540402835291602001916129f5565b820191906000526020600020905b8154815290600101906020018083116129d857829003601f168201915b50505050508152602001906001019061295d565b50505050815260200160048201805480602002602001604051908101604052809291908181526020016000905b82821015612ae2578382906000526020600020018054612a5590614d9d565b80601f0160208091040260200160405190810160405280929190818152602001828054612a8190614d9d565b8015612ace5780601f10612aa357610100808354040283529160200191612ace565b820191906000526020600020905b815481529060010190602001808311612ab157829003601f168201915b505050505081526020019060010190612a36565b505050508152602001600582018054612afa90614d9d565b80601f0160208091040260200160405190810160405280929190818152602001828054612b2690614d9d565b8015612b735780601f10612b4857610100808354040283529160200191612b73565b820191906000526020600020905b815481529060010190602001808311612b5657829003601f168201915b50505050508152602001600682018054612b8c90614d9d565b80601f0160208091040260200160405190810160405280929190818152602001828054612bb890614d9d565b8015612c055780601f10612bda57610100808354040283529160200191612c05565b820191906000526020600020905b815481529060010190602001808311612be857829003601f168201915b50505050508152505081526020019060010190612718565b505050509050919050565b60006002811115612c3c57612c3b61414d565b5b6000803373ffffffffffffffffffffffffffffffffffffffff1673ffffffffffffffffffffffffffffffffffffffff16815260200190815260200160002060009054906101000a900460ff166002811115612c9a57612c9961414d565b5b14612cda576040517f08c379a0000000000000000000000000000000000000000000000000000000008152600401612cd1906157c8565b60405180910390fd5b60006002811115612cee57612ced61414d565b5b60ff168260ff1610158015612d1b5750600280811115612d1157612d1061414d565b5b60ff168260ff1611155b612d5a576040517f08c379a0000000000000000000000000000000000000000000000000000000008152600401612d5190615834565b60405180910390fd5b600073ffffffffffffffffffffffffffffffffffffffff16600682604051612d829190615052565b908152602001604051809103902060009054906101000a900473ffffffffffffffffffffffffffffffffffffffff1673ffffffffffffffffffffffffffffffffffffffff1614612e07576040517f08c379a0000000000000000000000000000000000000000000000000000000008152600401612dfe906158a0565b60405180910390fd5b8160ff166002811115612e1d57612e1c61414d565b5b6000803373ffffffffffffffffffffffffffffffffffffffff1673ffffffffffffffffffffffffffffffffffffffff16815260200190815260200160002060006101000a81548160ff02191690836002811115612e7d57612e7c61414d565b5b021790555080600560003373ffffffffffffffffffffffffffffffffffffffff1673ffffffffffffffffffffffffffffffffffffffff1681526020019081526020016000209081612ece9190615200565b5033600682604051612ee09190615052565b908152602001604051809103902060006101000a81548173ffffffffffffffffffffffffffffffffffffffff021916908373ffffffffffffffffffffffffffffffffffffffff160217905550600781908060018154018082558091505060019003906000526020600020016000909190919091509081612f609190615200565b505050565b6006818051602081018201805184825260208301602085012081835280955050505050506000915054906101000a900473ffffffffffffffffffffffffffffffffffffffff1681565b60046020528160005260406000208181548110612fca57600080fd5b9060005260206000209060020201600091509150508060000160009054906101000a900473ffffffffffffffffffffffffffffffffffffffff16908060010154905082565b60606002808111156130245761302361414d565b5b6000803373ffffffffffffffffffffffffffffffffffffffff1673ffffffffffffffffffffffffffffffffffffffff16815260200190815260200160002060009054906101000a900460ff1660028111156130825761308161414d565b5b146130c2576040517f08c379a00000000000000000000000000000000000000000000000000000000081526004016130b9906153bb565b60405180910390fd5b6000600460003373ffffffffffffffffffffffffffffffffffffffff1673ffffffffffffffffffffffffffffffffffffffff16815260200190815260200160002080549050905060008167ffffffffffffffff81111561312557613124614280565b5b60405190808252806020026020018201604052801561315e57816020015b61314b613ed8565b8152602001906001900390816131435790505b50905060005b82811015613766576000600460003373ffffffffffffffffffffffffffffffffffffffff1673ffffffffffffffffffffffffffffffffffffffff16815260200190815260200160002082815481106131bf576131be614ecc565b5b90600052602060002090600202019050600160008260000160009054906101000a900473ffffffffffffffffffffffffffffffffffffffff1673ffffffffffffffffffffffffffffffffffffffff1673ffffffffffffffffffffffffffffffffffffffff16815260200190815260200160002081600101548154811061324857613247614ecc565b5b90600052602060002090600702016040518061010001604052908160008201805461327290614d9d565b80601f016020809104026020016040519081016040528092919081815260200182805461329e90614d9d565b80156132eb5780601f106132c0576101008083540402835291602001916132eb565b820191906000526020600020905b8154815290600101906020018083116132ce57829003601f168201915b505050505081526020016001820160009054906101000a900473ffffffffffffffffffffffffffffffffffffffff1673ffffffffffffffffffffffffffffffffffffffff1673ffffffffffffffffffffffffffffffffffffffff1681526020016001820160149054906101000a900460ff16600381111561336f5761336e61414d565b5b60038111156133815761338061414d565b5b815260200160028201805480602002602001604051908101604052809291908181526020016000905b828210156134565783829060005260206000200180546133c990614d9d565b80601f01602080910402602001604051908101604052809291908181526020018280546133f590614d9d565b80156134425780601f1061341757610100808354040283529160200191613442565b820191906000526020600020905b81548152906001019060200180831161342557829003601f168201915b5050505050815260200190600101906133aa565b50505050815260200160038201805480602002602001604051908101604052809291908181526020016000905b8282101561352f5783829060005260206000200180546134a290614d9d565b80601f01602080910402602001604051908101604052809291908181526020018280546134ce90614d9d565b801561351b5780601f106134f05761010080835404028352916020019161351b565b820191906000526020600020905b8154815290600101906020018083116134fe57829003601f168201915b505050505081526020019060010190613483565b50505050815260200160048201805480602002602001604051908101604052809291908181526020016000905b8282101561360857838290600052602060002001805461357b90614d9d565b80601f01602080910402602001604051908101604052809291908181526020018280546135a790614d9d565b80156135f45780601f106135c9576101008083540402835291602001916135f4565b820191906000526020600020905b8154815290600101906020018083116135d757829003601f168201915b50505050508152602001906001019061355c565b50505050815260200160058201805461362090614d9d565b80601f016020809104026020016040519081016040528092919081815260200182805461364c90614d9d565b80156136995780601f1061366e57610100808354040283529160200191613699565b820191906000526020600020905b81548152906001019060200180831161367c57829003601f168201915b505050505081526020016006820180546136b290614d9d565b80601f01602080910402602001604051908101604052809291908181526020018280546136de90614d9d565b801561372b5780601f106137005761010080835404028352916020019161372b565b820191906000526020600020905b81548152906001019060200180831161370e57829003601f168201915b50505050508152505083838151811061374757613746614ecc565b5b602002602001018190525050808061375e90615301565b915050613164565b50809250505090565b6003602052836000526040600020602052826000526040600020828051602081018201805184825260208301602085012081835280955050505050508180516020810182018051848252602083016020850120818352809550505050505060009350935050505080546137e190614d9d565b80601f016020809104026020016040519081016040528092919081815260200182805461380d90614d9d565b801561385a5780601f1061382f5761010080835404028352916020019161385a565b820191906000526020600020905b81548152906001019060200180831161383d57829003601f168201915b505050505081565b600160028111156138765761387561414d565b5b6000803373ffffffffffffffffffffffffffffffffffffffff1673ffffffffffffffffffffffffffffffffffffffff16815260200190815260200160002060009054906101000a900460ff1660028111156138d4576138d361414d565b5b14613914576040517f08c379a000000000000000000000000000000000000000000000000000000000815260040161390b90614e40565b60405180910390fd5b600160003373ffffffffffffffffffffffffffffffffffffffff1673ffffffffffffffffffffffffffffffffffffffff168152602001908152602001600020805490508210613998576040517f08c379a000000000000000000000000000000000000000000000000000000000815260040161398f90614eac565b60405180910390fd5b6000600160003373ffffffffffffffffffffffffffffffffffffffff1673ffffffffffffffffffffffffffffffffffffffff16815260200190815260200160002083815481106139eb576139ea614ecc565b5b9060005260206000209060070201905060016003811115613a0f57613a0e61414d565b5b8160010160149054906101000a900460ff166003811115613a3357613a3261414d565b5b14613a73576040517f08c379a0000000000000000000000000000000000000000000000000000000008152600401613a6a9061590c565b60405180910390fd5b60005b8251811015613d6e5760005b8260030180549050811015613d5a57838281518110613aa457613aa3614ecc565b5b6020026020010151604051602001613abc9190615052565b60405160208183030381529060405280519060200120836003018281548110613ae857613ae7614ecc565b5b90600052602060002001604051602001613b02919061500a565b6040516020818303038152906040528051906020012003613d47578260030160018460030180549050613b35919061592c565b81548110613b4657613b45614ecc565b5b90600052602060002001836003018281548110613b6657613b65614ecc565b5b906000526020600020019081613b7c9190615602565b5082600301805480613b9157613b90615960565b5b600190038181906000526020600020016000613bad9190613f45565b90558260040160018460040180549050613bc7919061592c565b81548110613bd857613bd7614ecc565b5b90600052602060002001836004018281548110613bf857613bf7614ecc565b5b906000526020600020019081613c0e9190615602565b5082600401805480613c2357613c22615960565b5b600190038181906000526020600020016000613c3f9190613f45565b9055600360008460010160009054906101000a900473ffffffffffffffffffffffffffffffffffffffff1673ffffffffffffffffffffffffffffffffffffffff1673ffffffffffffffffffffffffffffffffffffffff16815260200190815260200160002060003373ffffffffffffffffffffffffffffffffffffffff1673ffffffffffffffffffffffffffffffffffffffff16815260200190815260200160002083600001604051613cf2919061500a565b9081526020016040518091039020848381518110613d1357613d12614ecc565b5b6020026020010151604051613d289190615052565b90815260200160405180910390206000613d429190613f45565b613d5a565b8080613d5290615301565b915050613a82565b508080613d6690615301565b915050613a76565b5060038160010160146101000a81548160ff02191690836003811115613d9757613d9661414d565b5b0217905550505050565b6000808390506000839050815181511115613dc157600092505050613e79565b60005b8151811015613e7157818181518110613de057613ddf614ecc565b5b602001015160f81c60f81b7effffffffffffffffffffffffffffffffffffffffffffffffffffffffffffff1916838281518110613e2057613e1f614ecc565b5b602001015160f81c60f81b7effffffffffffffffffffffffffffffffffffffffffffffffffffffffffffff191614613e5e5760009350505050613e79565b8080613e6990615301565b915050613dc4565b506001925050505b92915050565b828054828255906000526020600020908101928215613ec7579160200282015b82811115613ec6578251829081613eb69190615200565b5091602001919060010190613e9f565b5b509050613ed49190613f85565b5090565b60405180610100016040528060608152602001600073ffffffffffffffffffffffffffffffffffffffff16815260200160006003811115613f1c57613f1b61414d565b5b815260200160608152602001606081526020016060815260200160608152602001606081525090565b508054613f5190614d9d565b6000825580601f10613f635750613f82565b601f016020900490600052602060002090810190613f819190613fa9565b5b50565b5b80821115613fa55760008181613f9c9190613f45565b50600101613f86565b5090565b5b80821115613fc2576000816000905550600101613faa565b5090565b6000604051905090565b600080fd5b600080fd5b600073ffffffffffffffffffffffffffffffffffffffff82169050919050565b600061400582613fda565b9050919050565b61401581613ffa565b811461402057600080fd5b50565b6000813590506140328161400c565b92915050565b6000819050919050565b61404b81614038565b811461405657600080fd5b50565b60008135905061406881614042565b92915050565b6000806040838503121561408557614084613fd0565b5b600061409385828601614023565b92505060206140a485828601614059565b9150509250929050565b600081519050919050565b600082825260208201905092915050565b60005b838110156140e85780820151818401526020810190506140cd565b60008484015250505050565b6000601f19601f8301169050919050565b6000614110826140ae565b61411a81856140b9565b935061412a8185602086016140ca565b614133816140f4565b840191505092915050565b61414781613ffa565b82525050565b7f4e487b7100000000000000000000000000000000000000000000000000000000600052602160045260246000fd5b6004811061418d5761418c61414d565b5b50565b600081905061419e8261417c565b919050565b60006141ae82614190565b9050919050565b6141be816141a3565b82525050565b600060a08201905081810360008301526141de8188614105565b90506141ed602083018761413e565b6141fa60408301866141b5565b818103606083015261420c8185614105565b905081810360808301526142208184614105565b90509695505050505050565b60006020828403121561424257614241613fd0565b5b600061425084828501614023565b91505092915050565b600060208201905081810360008301526142738184614105565b905092915050565b600080fd5b7f4e487b7100000000000000000000000000000000000000000000000000000000600052604160045260246000fd5b6142b8826140f4565b810181811067ffffffffffffffff821117156142d7576142d6614280565b5b80604052505050565b60006142ea613fc6565b90506142f682826142af565b919050565b600067ffffffffffffffff82111561431657614315614280565b5b602082029050602081019050919050565b600080fd5b600080fd5b600067ffffffffffffffff82111561434c5761434b614280565b5b614355826140f4565b9050602081019050919050565b82818337600083830152505050565b600061438461437f84614331565b6142e0565b9050828152602081018484840111156143a05761439f61432c565b5b6143ab848285614362565b509392505050565b600082601f8301126143c8576143c761427b565b5b81356143d8848260208601614371565b91505092915050565b60006143f46143ef846142fb565b6142e0565b9050808382526020820190506020840283018581111561441757614416614327565b5b835b8181101561445e57803567ffffffffffffffff81111561443c5761443b61427b565b5b80860161444989826143b3565b85526020850194505050602081019050614419565b5050509392505050565b600082601f83011261447d5761447c61427b565b5b813561448d8482602086016143e1565b91505092915050565b600080604083850312156144ad576144ac613fd0565b5b60006144bb85828601614059565b925050602083013567ffffffffffffffff8111156144dc576144db613fd5565b5b6144e885828601614468565b9150509250929050565b6000604082019050818103600083015261450c8185614105565b905081810360208301526145208184614105565b90509392505050565b60006020828403121561453f5761453e613fd0565b5b600061454d84828501614059565b91505092915050565b60008060006060848603121561456f5761456e613fd0565b5b600084013567ffffffffffffffff81111561458d5761458c613fd5565b5b614599868287016143b3565b935050602084013567ffffffffffffffff8111156145ba576145b9613fd5565b5b6145c6868287016143b3565b925050604084013567ffffffffffffffff8111156145e7576145e6613fd5565b5b6145f386828701614468565b9150509250925092565b6003811061460e5761460d61414d565b5b50565b600081905061461f826145fd565b919050565b600061462f82614611565b9050919050565b61463f81614624565b82525050565b600060208201905061465a6000830184614636565b92915050565b600081519050919050565b600082825260208201905092915050565b6000819050602082019050919050565b600082825260208201905092915050565b60006146a8826140ae565b6146b2818561468c565b93506146c28185602086016140ca565b6146cb816140f4565b840191505092915050565b60006146e2838361469d565b905092915050565b6000602082019050919050565b600061470282614660565b61470c818561466b565b93508360208202850161471e8561467c565b8060005b8581101561475a578484038952815161473b85826146d6565b9450614746836146ea565b925060208a01995050600181019050614722565b50829750879550505050505092915050565b600081519050919050565b600082825260208201905092915050565b6000819050602082019050919050565b600082825260208201905092915050565b60006147b482614660565b6147be8185614798565b9350836020820285016147d08561467c565b8060005b8581101561480c57848403895281516147ed85826146d6565b94506147f8836146ea565b925060208a019950506001810190506147d4565b50829750879550505050505092915050565b600061482a83836147a9565b905092915050565b6000602082019050919050565b600061484a8261476c565b6148548185614777565b93508360208202850161486685614788565b8060005b858110156148a25784840389528151614883858261481e565b945061488e83614832565b925060208a0199505060018101905061486a565b50829750879550505050505092915050565b600060608201905081810360008301526148ce81866146f7565b905081810360208301526148e2818561483f565b905081810360408301526148f6818461483f565b9050949350505050565b60006020828403121561491657614915613fd0565b5b600082013567ffffffffffffffff81111561493457614933613fd5565b5b614940848285016143b3565b91505092915050565b6000602082019050818103600083015261496381846146f7565b905092915050565b60008060006060848603121561498457614983613fd0565b5b600084013567ffffffffffffffff8111156149a2576149a1613fd5565b5b6149ae868287016143b3565b935050602084013567ffffffffffffffff8111156149cf576149ce613fd5565b5b6149db86828701614468565b925050604084013567ffffffffffffffff8111156149fc576149fb613fd5565b5b614a0886828701614468565b9150509250925092565b600081519050919050565b600082825260208201905092915050565b6000819050602082019050919050565b614a4781613ffa565b82525050565b614a56816141a3565b82525050565b6000610100830160008301518482036000860152614a7a828261469d565b9150506020830151614a8f6020860182614a3e565b506040830151614aa26040860182614a4d565b5060608301518482036060860152614aba82826147a9565b91505060808301518482036080860152614ad482826147a9565b91505060a083015184820360a0860152614aee82826147a9565b91505060c083015184820360c0860152614b08828261469d565b91505060e083015184820360e0860152614b22828261469d565b9150508091505092915050565b6000614b3b8383614a5c565b905092915050565b6000602082019050919050565b6000614b5b82614a12565b614b658185614a1d565b935083602082028501614b7785614a2e565b8060005b85811015614bb35784840389528151614b948582614b2f565b9450614b9f83614b43565b925060208a01995050600181019050614b7b565b50829750879550505050505092915050565b60006020820190508181036000830152614bdf8184614b50565b905092915050565b600060ff82169050919050565b614bfd81614be7565b8114614c0857600080fd5b50565b600081359050614c1a81614bf4565b92915050565b60008060408385031215614c3757614c36613fd0565b5b6000614c4585828601614c0b565b925050602083013567ffffffffffffffff811115614c6657614c65613fd5565b5b614c72858286016143b3565b9150509250929050565b6000602082019050614c91600083018461413e565b92915050565b614ca081614038565b82525050565b6000604082019050614cbb600083018561413e565b614cc86020830184614c97565b9392505050565b60008060008060808587031215614ce957614ce8613fd0565b5b6000614cf787828801614023565b9450506020614d0887828801614023565b935050604085013567ffffffffffffffff811115614d2957614d28613fd5565b5b614d35878288016143b3565b925050606085013567ffffffffffffffff811115614d5657614d55613fd5565b5b614d62878288016143b3565b91505092959194509250565b7f4e487b7100000000000000000000000000000000000000000000000000000000600052602260045260246000fd5b60006002820490506001821680614db557607f821691505b602082108103614dc857614dc7614d6e565b5b50919050565b7f4f6e6c792075736572732063616e2063616c6c20746869732066756e6374696f60008201527f6e00000000000000000000000000000000000000000000000000000000000000602082015250565b6000614e2a6021836140b9565b9150614e3582614dce565b604082019050919050565b60006020820190508181036000830152614e5981614e1d565b9050919050565b7f496e76616c6964207265717565737420696e6465780000000000000000000000600082015250565b6000614e966015836140b9565b9150614ea182614e60565b602082019050919050565b60006020820190508181036000830152614ec581614e89565b9050919050565b7f4e487b7100000000000000000000000000000000000000000000000000000000600052603260045260246000fd5b7f52657175657374206973206e6f742070656e64696e6700000000000000000000600082015250565b6000614f316016836140b9565b9150614f3c82614efb565b602082019050919050565b60006020820190508181036000830152614f6081614f24565b9050919050565b600081905092915050565b60008190508160005260206000209050919050565b60008154614f9481614d9d565b614f9e8186614f67565b94506001821660008114614fb95760018114614fce57615001565b60ff1983168652811515820286019350615001565b614fd785614f72565b60005b83811015614ff957815481890152600182019150602081019050614fda565b838801955050505b50505092915050565b60006150168284614f87565b915081905092915050565b600061502c826140ae565b6150368185614f67565b93506150468185602086016140ca565b80840191505092915050565b600061505e8284615021565b915081905092915050565b60006020601f8301049050919050565b600082821b905092915050565b6000600883026150b67fffffffffffffffffffffffffffffffffffffffffffffffffffffffffffffffff82615079565b6150c08683615079565b95508019841693508086168417925050509392505050565b6000819050919050565b60006150fd6150f86150f384614038565b6150d8565b614038565b9050919050565b6000819050919050565b615117836150e2565b61512b61512382615104565b848454615086565b825550505050565b600090565b615140615133565b61514b81848461510e565b505050565b5b8181101561516f57615164600082615138565b600181019050615151565b5050565b601f8211156151b45761518581614f72565b61518e84615069565b8101602085101561519d578190505b6151b16151a985615069565b830182615150565b50505b505050565b600082821c905092915050565b60006151d7600019846008026151b9565b1980831691505092915050565b60006151f083836151c6565b9150826002028217905092915050565b615209826140ae565b67ffffffffffffffff81111561522257615221614280565b5b61522c8254614d9d565b615237828285615173565b600060209050601f83116001811461526a5760008415615258578287015190505b61526285826151e4565b8655506152ca565b601f19841661527886614f72565b60005b828110156152a05784890151825560018201915060208501945060208101905061527b565b868310156152bd57848901516152b9601f8916826151c6565b8355505b6001600288020188555050505b505050505050565b7f4e487b7100000000000000000000000000000000000000000000000000000000600052601160045260246000fd5b600061530c82614038565b91507fffffffffffffffffffffffffffffffffffffffffffffffffffffffffffffffff820361533e5761533d6152d2565b5b600182019050919050565b7f4f6e6c79207665726966696572732063616e2063616c6c20746869732066756e60008201527f6374696f6e000000000000000000000000000000000000000000000000000000602082015250565b60006153a56025836140b9565b91506153b082615349565b604082019050919050565b600060208201905081810360008301526153d481615398565b9050919050565b7f496e76616c696420656d61696c20616464726573730000000000000000000000600082015250565b60006154116015836140b9565b915061541c826153db565b602082019050919050565b6000602082019050818103600083015261544081615404565b9050919050565b7f456d61696c20646f6573206e6f742062656c6f6e6720746f2061207573657200600082015250565b600061547d601f836140b9565b915061548882615447565b602082019050919050565b600060208201905081810360008301526154ac81615470565b9050919050565b7f596f752063616e206f6e6c7920726574726965766520796f7572206f776e206460008201527f6f63756d656e7473000000000000000000000000000000000000000000000000602082015250565b600061550f6028836140b9565b915061551a826154b3565b604082019050919050565b6000602082019050818103600083015261553e81615502565b9050919050565b7f4b65797320616e642076616c756573206d75737420686176652074686520736160008201527f6d65206c656e6774680000000000000000000000000000000000000000000000602082015250565b60006155a16029836140b9565b91506155ac82615545565b604082019050919050565b600060208201905081810360008301526155d081615594565b9050919050565b6000815490506155e681614d9d565b9050919050565b60008190508160005260206000209050919050565b8181036156105750506156e8565b615619826155d7565b67ffffffffffffffff81111561563257615631614280565b5b61563c8254614d9d565b615647828285615173565b6000601f8311600181146156765760008415615664578287015490505b61566e85826151e4565b8655506156e1565b601f198416615684876155ed565b965061568f86614f72565b60005b828110156156b757848901548255600182019150600185019450602081019050615692565b868310156156d457848901546156d0601f8916826151c6565b8355505b6001600288020188555050505b5050505050505b565b7f596f752063616e206f6e6c7920726574726965766520796f7572206f776e207260008201527f6571756573747300000000000000000000000000000000000000000000000000602082015250565b60006157466027836140b9565b9150615751826156ea565b604082019050919050565b6000602082019050818103600083015261577581615739565b9050919050565b7f5573657220616c72656164792072656769737465726564000000000000000000600082015250565b60006157b26017836140b9565b91506157bd8261577c565b602082019050919050565b600060208201905081810360008301526157e1816157a5565b9050919050565b7f496e76616c696420726f6c650000000000000000000000000000000000000000600082015250565b600061581e600c836140b9565b9150615829826157e8565b602082019050919050565b6000602082019050818103600083015261584d81615811565b9050919050565b7f456d61696c20616c726561647920726567697374657265640000000000000000600082015250565b600061588a6018836140b9565b915061589582615854565b602082019050919050565b600060208201905081810360008301526158b98161587d565b9050919050565b7f52657175657374206973206e6f7420617070726f766564000000000000000000600082015250565b60006158f66017836140b9565b9150615901826158c0565b602082019050919050565b60006020820190508181036000830152615925816158e9565b9050919050565b600061593782614038565b915061594283614038565b925082820390508181111561595a576159596152d2565b5b92915050565b7f4e487b7100000000000000000000000000000000000000000000000000000000600052603160045260246000fdfea2646970667358221220b8b621ebb8b2bc3539dfa2aea15f5ae8178bc59d828bd8eb6d8d42e8c5a8e5ee64736f6c63430008130033",
  "immutableReferences": {},
  "source": "pragma solidity ^0.8.19;\r\nimport \"./StringUtils.sol\";\r\n\r\n// SPDX-License-Identifier: MIT\r\n\r\n\r\ncontract DocumentSharingContract {\r\nusing StringUtils for string;\r\n    enum UserRole {\r\n        None,\r\n        User,\r\n        Verifier\r\n    }\r\n    enum RequestStatus {\r\n        Pending,\r\n        Approved,\r\n        Rejected,\r\n        Revoked\r\n    }\r\n\r\n    mapping(address => UserRole) public userRoles;\r\n\r\n    struct DocumentRequest {\r\n        string documentType;\r\n        address verifier;\r\n        RequestStatus status;\r\n        string[] requestedAttributes;\r\n        string[] approvedAttributeKeys;\r\n        string[] approvedAttributeValues;\r\n        string verifierEmail; // New field\r\n        string userEmail; \r\n    }\r\n\r\n    struct DocumentInfo {\r\n        string documentType;\r\n        string[] keys;\r\n        string userEmail;\r\n        mapping(string => string) attributes;\r\n    }\r\n    struct VerifierRequestInfo {\r\n        address user;\r\n        uint256 requestIndex;\r\n    }\r\n\r\n    mapping(address => DocumentRequest[]) public userRequests;\r\n    mapping(address => DocumentInfo[]) public userDocuments;\r\n\r\n    mapping(address => mapping(address => mapping(string => mapping(string => string))))\r\n        public verifierDocumentAccess;\r\n\r\n    mapping(address => VerifierRequestInfo[]) public verifierRequestsMapping;\r\n    mapping(address => string) public addressToEmail;\r\n    mapping(string => address) public emailToAddress;\r\n    string[] public registeredEmails;\r\n\r\n    modifier onlyUser() {\r\n        require(\r\n            userRoles[msg.sender] == UserRole.User,\r\n            \"Only users can call this function\"\r\n        );\r\n        _;\r\n    }\r\n\r\n    modifier onlyVerifier() {\r\n        require(\r\n            userRoles[msg.sender] == UserRole.Verifier,\r\n            \"Only verifiers can call this function\"\r\n        );\r\n        _;\r\n    }\r\n\r\n   function registerUser(uint8 role, string memory email) public {\r\n    require(userRoles[msg.sender] == UserRole.None, \"User already registered\");\r\n    require(role >= uint8(UserRole.None) && role <= uint8(UserRole.Verifier), \"Invalid role\");\r\n    require(emailToAddress[email] == address(0), \"Email already registered\");\r\n\r\n    userRoles[msg.sender] = UserRole(role);\r\n    addressToEmail[msg.sender] = email;\r\n    emailToAddress[email] = msg.sender;\r\n     registeredEmails.push(email);\r\n}\r\n\r\n    function requestDocumentAccess(string memory userEmail, string memory documentType, string[] memory attributes)\r\n    public onlyVerifier\r\n{\r\n    address user = emailToAddress[userEmail];\r\n    require(user != address(0), \"Invalid email address\");\r\n    require(userRoles[user] == UserRole.User, \"Email does not belong to a user\");\r\n\r\n    uint256 requestIndex = userRequests[user].length;\r\n    userRequests[user].push(DocumentRequest({\r\n        documentType: documentType,\r\n        verifier: msg.sender,\r\n        verifierEmail: addressToEmail[msg.sender], \r\n        userEmail: addressToEmail[user],   \r\n        status: RequestStatus.Pending,\r\n        requestedAttributes: attributes,\r\n        approvedAttributeKeys: new string[](0),\r\n        approvedAttributeValues: new string[](0)\r\n    }));\r\n    \r\n    VerifierRequestInfo memory verifierRequestInfo = VerifierRequestInfo({\r\n        user: user,\r\n        requestIndex: requestIndex\r\n    });\r\n    verifierRequestsMapping[msg.sender].push(verifierRequestInfo);\r\n}\r\n\r\n\r\n\r\n    // Function to approve the document access request\r\n    function approveDocumentAccess(uint256 requestIndex,string[] memory approvedKeys) public onlyUser {\r\n        require(\r\n            requestIndex < userRequests[msg.sender].length,\r\n            \"Invalid request index\"\r\n        );\r\n        DocumentRequest storage request = userRequests[msg.sender][\r\n            requestIndex\r\n        ];\r\n        require(\r\n            request.status == RequestStatus.Pending,\r\n            \"Request is not pending\"\r\n        );\r\n        request.approvedAttributeKeys = approvedKeys;\r\n\r\n        request.status = RequestStatus.Approved;\r\n       \r\n\r\n        // Iterate through user's documents to find the requested document\r\n        for (uint256 i = 0; i < userDocuments[msg.sender].length; i++) {\r\n            if (\r\n                keccak256(\r\n                    abi.encodePacked(userDocuments[msg.sender][i].documentType)\r\n                ) == keccak256(abi.encodePacked(request.documentType))\r\n            ) {\r\n                // Found the document, now copy the approved attributes\r\n                for (\r\n                    uint256 j = 0;\r\n                    j < request.approvedAttributeKeys.length;\r\n                    j++\r\n                ) {\r\n                    string memory key = request.approvedAttributeKeys[j];\r\n                    string memory value = userDocuments[msg.sender][i]\r\n                        .attributes[key];\r\n                    request.approvedAttributeValues.push(value);\r\n                    verifierDocumentAccess[request.verifier][msg.sender][\r\n                        request.documentType\r\n                    ][key] = value;\r\n                }\r\n                break;\r\n            }\r\n        }\r\n    }\r\n\r\n    function rejectDocumentAccess(uint256 requestIndex) public onlyUser {\r\n        require(\r\n            userRequests[msg.sender].length > requestIndex,\r\n            \"Invalid request index\"\r\n        );\r\n        require(\r\n            userRequests[msg.sender][requestIndex].status ==\r\n                RequestStatus.Pending,\r\n            \"Request is not pending\"\r\n        );\r\n        userRequests[msg.sender][requestIndex].status = RequestStatus.Rejected;\r\n    }\r\n\r\n    function addDocument(\r\n        string memory documentType,\r\n        string[] memory keys,\r\n        string[] memory values\r\n    ) public onlyUser {\r\n        require(\r\n            keys.length == values.length,\r\n            \"Keys and values must have the same length\"\r\n        );\r\n        DocumentInfo storage documentInfo = userDocuments[msg.sender].push();\r\n        documentInfo.documentType = documentType;\r\n        documentInfo.userEmail = addressToEmail[msg.sender];\r\n        documentInfo.keys = keys;\r\n        for (uint256 i = 0; i < keys.length; i++) {\r\n            documentInfo.attributes[keys[i]] = values[i];\r\n        }\r\n    }\r\n\r\n    function revokeDocumentAttributes(\r\n        uint256 requestIndex,\r\n        string[] memory keysToRevoke\r\n    ) public onlyUser {\r\n        require(\r\n            requestIndex < userRequests[msg.sender].length,\r\n            \"Invalid request index\"\r\n        );\r\n        DocumentRequest storage request = userRequests[msg.sender][\r\n            requestIndex\r\n        ];\r\n        require(\r\n            request.status == RequestStatus.Approved,\r\n            \"Request is not approved\"\r\n        );\r\n\r\n        for (uint256 k = 0; k < keysToRevoke.length; k++) {\r\n            // For each key to revoke, find the attribute in the approvedAttributeKeys array and remove it.\r\n            for (uint256 i = 0; i < request.approvedAttributeKeys.length; i++) {\r\n                if (\r\n                    keccak256(\r\n                        abi.encodePacked(request.approvedAttributeKeys[i])\r\n                    ) == keccak256(abi.encodePacked(keysToRevoke[k]))\r\n                ) {\r\n                    request.approvedAttributeKeys[i] = request\r\n                        .approvedAttributeKeys[\r\n                            request.approvedAttributeKeys.length - 1\r\n                        ];\r\n                    request.approvedAttributeKeys.pop();\r\n\r\n                    request.approvedAttributeValues[i] = request\r\n                        .approvedAttributeValues[\r\n                            request.approvedAttributeValues.length - 1\r\n                        ];\r\n                    request.approvedAttributeValues.pop();\r\n\r\n                    // Remove the access from the verifierDocumentAccess mapping.\r\n                    delete verifierDocumentAccess[request.verifier][msg.sender][\r\n                        request.documentType\r\n                    ][keysToRevoke[k]];\r\n\r\n                    break;\r\n                }\r\n            }\r\n        }\r\n         request.status = RequestStatus.Revoked;\r\n    }\r\n\r\n    function getUserDocuments(\r\n        address user\r\n    )\r\n        public\r\n        view\r\n        onlyUser\r\n        returns (\r\n            string[] memory documentTypes,\r\n            string[][] memory keys,\r\n            string[][] memory values\r\n        )\r\n    {\r\n        require(user == msg.sender, \"You can only retrieve your own documents\");\r\n        uint256 length = userDocuments[user].length;\r\n        documentTypes = new string[](length);\r\n        keys = new string[][](length);\r\n        values = new string[][](length);\r\n\r\n        for (uint256 i = 0; i < length; i++) {\r\n            documentTypes[i] = userDocuments[user][i].documentType;\r\n            keys[i] = userDocuments[user][i].keys;\r\n            values[i] = new string[](keys[i].length);\r\n            for (uint256 j = 0; j < keys[i].length; j++) {\r\n                values[i][j] = userDocuments[user][i].attributes[keys[i][j]];\r\n            }\r\n        }\r\n\r\n        return (documentTypes, keys, values);\r\n    }\r\n\r\n   \r\n\r\n    function getVerifierRequests()\r\n        public\r\n        view\r\n        onlyVerifier\r\n        returns (DocumentRequest[] memory)\r\n    {\r\n        uint256 length = verifierRequestsMapping[msg.sender].length;\r\n        DocumentRequest[] memory requests = new DocumentRequest[](length);\r\n\r\n        for (uint256 i = 0; i < length; i++) {\r\n            VerifierRequestInfo storage info = verifierRequestsMapping[\r\n                msg.sender\r\n            ][i];\r\n\r\n            requests[i] = userRequests[info.user][info.requestIndex];\r\n        }\r\n\r\n        return requests;\r\n    }\r\n\r\n \r\n\r\n    function getUserRequests(\r\n        address user\r\n    ) public view onlyUser returns (DocumentRequest[] memory) {\r\n        require(user == msg.sender, \"You can only retrieve your own requests\");\r\n        return userRequests[user];\r\n    }\r\n\r\n  \r\nfunction getEmailsStartsWith(string memory prefix) public view returns (string[] memory) {\r\n    uint256 matchCount = 0;\r\n\r\n    for (uint256 i = 0; i < registeredEmails.length; i++) {\r\n        if (StringUtils.startsWith(registeredEmails[i], prefix)) {\r\n            matchCount++;\r\n        }\r\n    }\r\n\r\n    string[] memory matches = new string[](matchCount);\r\n    uint256 index = 0;\r\n\r\n    for (uint256 i = 0; i < registeredEmails.length; i++) {\r\n        if (StringUtils.startsWith(registeredEmails[i], prefix)) {\r\n            matches[index] = registeredEmails[i];\r\n            index++;\r\n        }\r\n    }\r\n\r\n    return matches;\r\n}\r\n\r\n}\r\n",
  "sourcePath": "C:\\Users\\vassh\\Desktop\\identity-management\\contracts\\DynamicContract.sol",
  "compiler": {
    "name": "solc",
    "version": "0.8.19+commit.7dd6d404.Emscripten.clang"
  },
  "schemaVersion": "3.4.14",
  "updatedAt": "2023-08-19T14:59:20.849Z",
  "networkType": "ethereum",
  "devdoc": {
    "kind": "dev",
    "methods": {},
    "version": 1
  },
  "userdoc": {
    "kind": "user",
    "methods": {},
    "version": 1
  }
}