{
  "contractName": "DocumentSharingContract",
  "abi": [
    {
      "inputs": [
        {
          "internalType": "address",
          "name": "",
          "type": "address"
        },
        {
          "internalType": "uint256",
          "name": "",
          "type": "uint256"
        }
      ],
      "name": "userDocuments",
      "outputs": [
        {
          "internalType": "string",
          "name": "documentType",
          "type": "string"
        }
      ],
      "stateMutability": "view",
      "type": "function",
      "constant": true
    },
    {
      "inputs": [
        {
          "internalType": "address",
          "name": "",
          "type": "address"
        },
        {
          "internalType": "uint256",
          "name": "",
          "type": "uint256"
        }
      ],
      "name": "userRequests",
      "outputs": [
        {
          "internalType": "string",
          "name": "documentType",
          "type": "string"
        },
        {
          "internalType": "address",
          "name": "verifier",
          "type": "address"
        },
        {
          "internalType": "enum DocumentSharingContract.RequestStatus",
          "name": "status",
          "type": "uint8"
        }
      ],
      "stateMutability": "view",
      "type": "function",
      "constant": true
    },
    {
      "inputs": [
        {
          "internalType": "address",
          "name": "",
          "type": "address"
        }
      ],
      "name": "userRoles",
      "outputs": [
        {
          "internalType": "enum DocumentSharingContract.UserRole",
          "name": "",
          "type": "uint8"
        }
      ],
      "stateMutability": "view",
      "type": "function",
      "constant": true
    },
    {
      "inputs": [
        {
          "internalType": "address",
          "name": "",
          "type": "address"
        },
        {
          "internalType": "address",
          "name": "",
          "type": "address"
        },
        {
          "internalType": "string",
          "name": "",
          "type": "string"
        },
        {
          "internalType": "string",
          "name": "",
          "type": "string"
        }
      ],
      "name": "verifierDocumentAccess",
      "outputs": [
        {
          "internalType": "string",
          "name": "",
          "type": "string"
        }
      ],
      "stateMutability": "view",
      "type": "function",
      "constant": true
    },
    {
      "inputs": [
        {
          "internalType": "address",
          "name": "",
          "type": "address"
        },
        {
          "internalType": "uint256",
          "name": "",
          "type": "uint256"
        }
      ],
      "name": "verifierRequestsMapping",
      "outputs": [
        {
          "internalType": "address",
          "name": "user",
          "type": "address"
        },
        {
          "internalType": "uint256",
          "name": "requestIndex",
          "type": "uint256"
        }
      ],
      "stateMutability": "view",
      "type": "function",
      "constant": true
    },
    {
      "inputs": [
        {
          "internalType": "uint8",
          "name": "role",
          "type": "uint8"
        }
      ],
      "name": "registerUser",
      "outputs": [],
      "stateMutability": "nonpayable",
      "type": "function"
    },
    {
      "inputs": [
        {
          "internalType": "address",
          "name": "user",
          "type": "address"
        },
        {
          "internalType": "string",
          "name": "documentType",
          "type": "string"
        },
        {
          "internalType": "string[]",
          "name": "attributes",
          "type": "string[]"
        }
      ],
      "name": "requestDocumentAccess",
      "outputs": [],
      "stateMutability": "nonpayable",
      "type": "function"
    },
    {
      "inputs": [
        {
          "internalType": "uint256",
          "name": "requestIndex",
          "type": "uint256"
        },
        {
          "internalType": "string[]",
          "name": "approvedKeys",
          "type": "string[]"
        }
      ],
      "name": "updateDocumentAccess",
      "outputs": [],
      "stateMutability": "nonpayable",
      "type": "function"
    },
    {
      "inputs": [
        {
          "internalType": "uint256",
          "name": "requestIndex",
          "type": "uint256"
        }
      ],
      "name": "approveDocumentAccess",
      "outputs": [],
      "stateMutability": "nonpayable",
      "type": "function"
    },
    {
      "inputs": [
        {
          "internalType": "uint256",
          "name": "requestIndex",
          "type": "uint256"
        }
      ],
      "name": "rejectDocumentAccess",
      "outputs": [],
      "stateMutability": "nonpayable",
      "type": "function"
    },
    {
      "inputs": [
        {
          "internalType": "string",
          "name": "documentType",
          "type": "string"
        },
        {
          "internalType": "string[]",
          "name": "keys",
          "type": "string[]"
        },
        {
          "internalType": "string[]",
          "name": "values",
          "type": "string[]"
        }
      ],
      "name": "addDocument",
      "outputs": [],
      "stateMutability": "nonpayable",
      "type": "function"
    },
    {
      "inputs": [
        {
          "internalType": "uint256",
          "name": "requestIndex",
          "type": "uint256"
        },
        {
          "internalType": "string[]",
          "name": "keysToRevoke",
          "type": "string[]"
        }
      ],
      "name": "revokeDocumentAttributes",
      "outputs": [],
      "stateMutability": "nonpayable",
      "type": "function"
    },
    {
      "inputs": [
        {
          "internalType": "address",
          "name": "user",
          "type": "address"
        }
      ],
      "name": "getUserDocuments",
      "outputs": [
        {
          "internalType": "string[]",
          "name": "documentTypes",
          "type": "string[]"
        },
        {
          "internalType": "string[][]",
          "name": "keys",
          "type": "string[][]"
        },
        {
          "internalType": "string[][]",
          "name": "values",
          "type": "string[][]"
        }
      ],
      "stateMutability": "view",
      "type": "function",
      "constant": true
    },
    {
      "inputs": [
        {
          "internalType": "address",
          "name": "verifier",
          "type": "address"
        },
        {
          "internalType": "address",
          "name": "user",
          "type": "address"
        },
        {
          "internalType": "string",
          "name": "documentType",
          "type": "string"
        },
        {
          "internalType": "string",
          "name": "key",
          "type": "string"
        }
      ],
      "name": "getDocumentAttribute",
      "outputs": [
        {
          "internalType": "string",
          "name": "",
          "type": "string"
        }
      ],
      "stateMutability": "view",
      "type": "function",
      "constant": true
    },
    {
      "inputs": [],
      "name": "getVerifierRequests",
      "outputs": [
        {
          "components": [
            {
              "internalType": "string",
              "name": "documentType",
              "type": "string"
            },
            {
              "internalType": "address",
              "name": "verifier",
              "type": "address"
            },
            {
              "internalType": "enum DocumentSharingContract.RequestStatus",
              "name": "status",
              "type": "uint8"
            },
            {
              "internalType": "string[]",
              "name": "requestedAttributes",
              "type": "string[]"
            },
            {
              "internalType": "string[]",
              "name": "approvedAttributeKeys",
              "type": "string[]"
            },
            {
              "internalType": "string[]",
              "name": "approvedAttributeValues",
              "type": "string[]"
            }
          ],
          "internalType": "struct DocumentSharingContract.DocumentRequest[]",
          "name": "",
          "type": "tuple[]"
        }
      ],
      "stateMutability": "view",
      "type": "function",
      "constant": true
    },
    {
      "inputs": [
        {
          "internalType": "address",
          "name": "user",
          "type": "address"
        },
        {
          "internalType": "string",
          "name": "documentType",
          "type": "string"
        }
      ],
      "name": "getApprovedData",
      "outputs": [
        {
          "internalType": "string[]",
          "name": "keys",
          "type": "string[]"
        },
        {
          "internalType": "string[]",
          "name": "values",
          "type": "string[]"
        }
      ],
      "stateMutability": "view",
      "type": "function",
      "constant": true
    },
    {
      "inputs": [
        {
          "internalType": "address",
          "name": "user",
          "type": "address"
        }
      ],
      "name": "getUserRequests",
      "outputs": [
        {
          "components": [
            {
              "internalType": "string",
              "name": "documentType",
              "type": "string"
            },
            {
              "internalType": "address",
              "name": "verifier",
              "type": "address"
            },
            {
              "internalType": "enum DocumentSharingContract.RequestStatus",
              "name": "status",
              "type": "uint8"
            },
            {
              "internalType": "string[]",
              "name": "requestedAttributes",
              "type": "string[]"
            },
            {
              "internalType": "string[]",
              "name": "approvedAttributeKeys",
              "type": "string[]"
            },
            {
              "internalType": "string[]",
              "name": "approvedAttributeValues",
              "type": "string[]"
            }
          ],
          "internalType": "struct DocumentSharingContract.DocumentRequest[]",
          "name": "",
          "type": "tuple[]"
        }
      ],
      "stateMutability": "view",
      "type": "function",
      "constant": true
    }
  ],
  "bytecode": "0x608060405234801561001057600080fd5b506151af806100206000396000f3fe608060405234801561001057600080fd5b506004361061010b5760003560e01c806374d5e100116100a2578063ce378b5611610071578063ce378b56146102f1578063f5237a861461030d578063f879a7821461033e578063f92362db1461035c578063fc85b1651461038c5761010b565b806374d5e1001461024357806390a4b162146102735780639a23cd50146102a5578063b337cf74146102c15761010b565b8063297fc009116100de578063297fc009146101ab5780633ad04baf146101c7578063577a1b92146101f757806366386596146102275761010b565b806302b8c8cd14610110578063067198ab1461012c5780631b6005da14610148578063263cb6b614610179575b600080fd5b61012a600480360381019061012591906139a9565b6103a8565b005b61014660048036038101906101419190613c38565b610558565b005b610162600480360381019061015d9190613cf2565b610787565b604051610170929190613e8f565b60405180910390f35b610193600480360381019061018e9190613ec6565b610c00565b6040516101a293929190613fd6565b60405180910390f35b6101c560048036038101906101c09190614014565b610cfc565b005b6101e160048036038101906101dc919061409f565b6111d8565b6040516101ee919061413e565b60405180910390f35b610211600480360381019061020c9190613ec6565b611321565b60405161021e919061413e565b60405180910390f35b610241600480360381019061023c9190614160565b6113e4565b005b61025d6004803603810190610258919061418d565b61167e565b60405161026a9190614202565b60405180910390f35b61028d6004803603810190610288919061418d565b61169e565b60405161029c93929190614365565b60405180910390f35b6102bf60048036038101906102ba91906143b1565b611dae565b005b6102db60048036038101906102d6919061418d565b611fb8565b6040516102e891906145d6565b60405180910390f35b61030b60048036038101906103069190614160565b612524565b005b61032760048036038101906103229190613ec6565b612b83565b604051610335929190614607565b60405180910390f35b610346612be4565b60405161035391906145d6565b60405180910390f35b6103766004803603810190610371919061409f565b61321f565b604051610383919061413e565b60405180910390f35b6103a660048036038101906103a19190613c38565b613312565b005b600060028111156103bc576103bb613f5f565b5b6000803373ffffffffffffffffffffffffffffffffffffffff1673ffffffffffffffffffffffffffffffffffffffff16815260200190815260200160002060009054906101000a900460ff16600281111561041a57610419613f5f565b5b1461045a576040517f08c379a00000000000000000000000000000000000000000000000000000000081526004016104519061467c565b60405180910390fd5b6000600281111561046e5761046d613f5f565b5b60ff168160ff161015801561049b575060028081111561049157610490613f5f565b5b60ff168160ff1611155b6104da576040517f08c379a00000000000000000000000000000000000000000000000000000000081526004016104d1906146e8565b60405180910390fd5b8060ff1660028111156104f0576104ef613f5f565b5b6000803373ffffffffffffffffffffffffffffffffffffffff1673ffffffffffffffffffffffffffffffffffffffff16815260200190815260200160002060006101000a81548160ff021916908360028111156105505761054f613f5f565b5b021790555050565b6001600281111561056c5761056b613f5f565b5b6000803373ffffffffffffffffffffffffffffffffffffffff1673ffffffffffffffffffffffffffffffffffffffff16815260200190815260200160002060009054906101000a900460ff1660028111156105ca576105c9613f5f565b5b1461060a576040517f08c379a00000000000000000000000000000000000000000000000000000000081526004016106019061477a565b60405180910390fd5b600160003373ffffffffffffffffffffffffffffffffffffffff1673ffffffffffffffffffffffffffffffffffffffff16815260200190815260200160002080549050821061068e576040517f08c379a0000000000000000000000000000000000000000000000000000000008152600401610685906147e6565b60405180910390fd5b6000600160003373ffffffffffffffffffffffffffffffffffffffff1673ffffffffffffffffffffffffffffffffffffffff16815260200190815260200160002083815481106106e1576106e0614806565b5b906000526020600020906005020190506000600281111561070557610704613f5f565b5b8160010160149054906101000a900460ff16600281111561072957610728613f5f565b5b14610769576040517f08c379a000000000000000000000000000000000000000000000000000000000815260040161076090614881565b60405180910390fd5b81816003019080519060200190610781929190613824565b50505050565b60608060028081111561079d5761079c613f5f565b5b6000803373ffffffffffffffffffffffffffffffffffffffff1673ffffffffffffffffffffffffffffffffffffffff16815260200190815260200160002060009054906101000a900460ff1660028111156107fb576107fa613f5f565b5b1461083b576040517f08c379a000000000000000000000000000000000000000000000000000000000815260040161083290614913565b60405180910390fd5b6000600260008673ffffffffffffffffffffffffffffffffffffffff1673ffffffffffffffffffffffffffffffffffffffff168152602001908152602001600020905060005b8180549050811015610bf7578460405160200161089e919061496f565b604051602081830303815290604052805190602001208282815481106108c7576108c6614806565b5b90600052602060002090600302016000016040516020016108e89190614a7e565b6040516020818303038152906040528051906020012003610be45781818154811061091657610915614806565b5b9060005260206000209060030201600101805480602002602001604051908101604052809291908181526020016000905b828210156109f3578382906000526020600020018054610966906149b5565b80601f0160208091040260200160405190810160405280929190818152602001828054610992906149b5565b80156109df5780601f106109b4576101008083540402835291602001916109df565b820191906000526020600020905b8154815290600101906020018083116109c257829003601f168201915b505050505081526020019060010190610947565b505050509350835167ffffffffffffffff811115610a1457610a13613a22565b5b604051908082528060200260200182016040528015610a4757816020015b6060815260200190600190039081610a325790505b50925060005b8451811015610bde57600360003373ffffffffffffffffffffffffffffffffffffffff1673ffffffffffffffffffffffffffffffffffffffff16815260200190815260200160002060008873ffffffffffffffffffffffffffffffffffffffff1673ffffffffffffffffffffffffffffffffffffffff16815260200190815260200160002086604051610ae0919061496f565b9081526020016040518091039020858281518110610b0157610b00614806565b5b6020026020010151604051610b16919061496f565b90815260200160405180910390208054610b2f906149b5565b80601f0160208091040260200160405190810160405280929190818152602001828054610b5b906149b5565b8015610ba85780601f10610b7d57610100808354040283529160200191610ba8565b820191906000526020600020905b815481529060010190602001808311610b8b57829003601f168201915b5050505050848281518110610bc057610bbf614806565b5b60200260200101819052508080610bd690614ac4565b915050610a4d565b50610bf7565b8080610bef90614ac4565b915050610881565b50509250929050565b60016020528160005260406000208181548110610c1c57600080fd5b906000526020600020906005020160009150915050806000018054610c40906149b5565b80601f0160208091040260200160405190810160405280929190818152602001828054610c6c906149b5565b8015610cb95780601f10610c8e57610100808354040283529160200191610cb9565b820191906000526020600020905b815481529060010190602001808311610c9c57829003601f168201915b5050505050908060010160009054906101000a900473ffffffffffffffffffffffffffffffffffffffff16908060010160149054906101000a900460ff16905083565b600280811115610d0f57610d0e613f5f565b5b6000803373ffffffffffffffffffffffffffffffffffffffff1673ffffffffffffffffffffffffffffffffffffffff16815260200190815260200160002060009054906101000a900460ff166002811115610d6d57610d6c613f5f565b5b14610dad576040517f08c379a0000000000000000000000000000000000000000000000000000000008152600401610da490614913565b60405180910390fd5b60016002811115610dc157610dc0613f5f565b5b6000808573ffffffffffffffffffffffffffffffffffffffff1673ffffffffffffffffffffffffffffffffffffffff16815260200190815260200160002060009054906101000a900460ff166002811115610e1f57610e1e613f5f565b5b14610e5f576040517f08c379a0000000000000000000000000000000000000000000000000000000008152600401610e5690614b58565b60405180910390fd5b6000600160008573ffffffffffffffffffffffffffffffffffffffff1673ffffffffffffffffffffffffffffffffffffffff168152602001908152602001600020805490509050600160008573ffffffffffffffffffffffffffffffffffffffff1673ffffffffffffffffffffffffffffffffffffffff1681526020019081526020016000206040518060c001604052808581526020013373ffffffffffffffffffffffffffffffffffffffff16815260200160006002811115610f2657610f25613f5f565b5b8152602001848152602001600067ffffffffffffffff811115610f4c57610f4b613a22565b5b604051908082528060200260200182016040528015610f7f57816020015b6060815260200190600190039081610f6a5790505b508152602001600067ffffffffffffffff811115610fa057610f9f613a22565b5b604051908082528060200260200182016040528015610fd357816020015b6060815260200190600190039081610fbe5790505b50815250908060018154018082558091505060019003906000526020600020906005020160009091909190915060008201518160000190816110159190614d0f565b5060208201518160010160006101000a81548173ffffffffffffffffffffffffffffffffffffffff021916908373ffffffffffffffffffffffffffffffffffffffff16021790555060408201518160010160146101000a81548160ff0219169083600281111561108857611087613f5f565b5b021790555060608201518160020190805190602001906110a9929190613824565b5060808201518160030190805190602001906110c6929190613824565b5060a08201518160040190805190602001906110e3929190613824565b505050600060405180604001604052808673ffffffffffffffffffffffffffffffffffffffff168152602001838152509050600460003373ffffffffffffffffffffffffffffffffffffffff1673ffffffffffffffffffffffffffffffffffffffff16815260200190815260200160002081908060018154018082558091505060019003906000526020600020906002020160009091909190915060008201518160000160006101000a81548173ffffffffffffffffffffffffffffffffffffffff021916908373ffffffffffffffffffffffffffffffffffffffff1602179055506020820151816001015550505050505050565b6060600360008673ffffffffffffffffffffffffffffffffffffffff1673ffffffffffffffffffffffffffffffffffffffff16815260200190815260200160002060008573ffffffffffffffffffffffffffffffffffffffff1673ffffffffffffffffffffffffffffffffffffffff16815260200190815260200160002083604051611264919061496f565b908152602001604051809103902082604051611280919061496f565b90815260200160405180910390208054611299906149b5565b80601f01602080910402602001604051908101604052809291908181526020018280546112c5906149b5565b80156113125780601f106112e757610100808354040283529160200191611312565b820191906000526020600020905b8154815290600101906020018083116112f557829003601f168201915b50505050509050949350505050565b6002602052816000526040600020818154811061133d57600080fd5b906000526020600020906003020160009150915050806000018054611361906149b5565b80601f016020809104026020016040519081016040528092919081815260200182805461138d906149b5565b80156113da5780601f106113af576101008083540402835291602001916113da565b820191906000526020600020905b8154815290600101906020018083116113bd57829003601f168201915b5050505050905081565b600160028111156113f8576113f7613f5f565b5b6000803373ffffffffffffffffffffffffffffffffffffffff1673ffffffffffffffffffffffffffffffffffffffff16815260200190815260200160002060009054906101000a900460ff16600281111561145657611455613f5f565b5b14611496576040517f08c379a000000000000000000000000000000000000000000000000000000000815260040161148d9061477a565b60405180910390fd5b80600160003373ffffffffffffffffffffffffffffffffffffffff1673ffffffffffffffffffffffffffffffffffffffff168152602001908152602001600020805490501161151a576040517f08c379a0000000000000000000000000000000000000000000000000000000008152600401611511906147e6565b60405180910390fd5b6000600281111561152e5761152d613f5f565b5b600160003373ffffffffffffffffffffffffffffffffffffffff1673ffffffffffffffffffffffffffffffffffffffff168152602001908152602001600020828154811061157f5761157e614806565b5b906000526020600020906005020160010160149054906101000a900460ff1660028111156115b0576115af613f5f565b5b146115f0576040517f08c379a00000000000000000000000000000000000000000000000000000000081526004016115e790614881565b60405180910390fd5b6002600160003373ffffffffffffffffffffffffffffffffffffffff1673ffffffffffffffffffffffffffffffffffffffff168152602001908152602001600020828154811061164357611642614806565b5b906000526020600020906005020160010160146101000a81548160ff0219169083600281111561167657611675613f5f565b5b021790555050565b60006020528060005260406000206000915054906101000a900460ff1681565b6060806060600160028111156116b7576116b6613f5f565b5b6000803373ffffffffffffffffffffffffffffffffffffffff1673ffffffffffffffffffffffffffffffffffffffff16815260200190815260200160002060009054906101000a900460ff16600281111561171557611714613f5f565b5b14611755576040517f08c379a000000000000000000000000000000000000000000000000000000000815260040161174c9061477a565b60405180910390fd5b3373ffffffffffffffffffffffffffffffffffffffff168473ffffffffffffffffffffffffffffffffffffffff16146117c3576040517f08c379a00000000000000000000000000000000000000000000000000000000081526004016117ba90614e53565b60405180910390fd5b6000600260008673ffffffffffffffffffffffffffffffffffffffff1673ffffffffffffffffffffffffffffffffffffffff1681526020019081526020016000208054905090508067ffffffffffffffff81111561182457611823613a22565b5b60405190808252806020026020018201604052801561185757816020015b60608152602001906001900390816118425790505b5093508067ffffffffffffffff81111561187457611873613a22565b5b6040519080825280602002602001820160405280156118a757816020015b60608152602001906001900390816118925790505b5092508067ffffffffffffffff8111156118c4576118c3613a22565b5b6040519080825280602002602001820160405280156118f757816020015b60608152602001906001900390816118e25790505b50915060005b81811015611da557600260008773ffffffffffffffffffffffffffffffffffffffff1673ffffffffffffffffffffffffffffffffffffffff168152602001908152602001600020818154811061195657611955614806565b5b90600052602060002090600302016000018054611972906149b5565b80601f016020809104026020016040519081016040528092919081815260200182805461199e906149b5565b80156119eb5780601f106119c0576101008083540402835291602001916119eb565b820191906000526020600020905b8154815290600101906020018083116119ce57829003601f168201915b5050505050858281518110611a0357611a02614806565b5b6020026020010181905250600260008773ffffffffffffffffffffffffffffffffffffffff1673ffffffffffffffffffffffffffffffffffffffff1681526020019081526020016000208181548110611a5f57611a5e614806565b5b9060005260206000209060030201600101805480602002602001604051908101604052809291908181526020016000905b82821015611b3c578382906000526020600020018054611aaf906149b5565b80601f0160208091040260200160405190810160405280929190818152602001828054611adb906149b5565b8015611b285780601f10611afd57610100808354040283529160200191611b28565b820191906000526020600020905b815481529060010190602001808311611b0b57829003601f168201915b505050505081526020019060010190611a90565b50505050848281518110611b5357611b52614806565b5b6020026020010181905250838181518110611b7157611b70614806565b5b60200260200101515167ffffffffffffffff811115611b9357611b92613a22565b5b604051908082528060200260200182016040528015611bc657816020015b6060815260200190600190039081611bb15790505b50838281518110611bda57611bd9614806565b5b602002602001018190525060005b848281518110611bfb57611bfa614806565b5b602002602001015151811015611d9157600260008873ffffffffffffffffffffffffffffffffffffffff1673ffffffffffffffffffffffffffffffffffffffff1681526020019081526020016000208281548110611c5c57611c5b614806565b5b9060005260206000209060030201600201858381518110611c8057611c7f614806565b5b60200260200101518281518110611c9a57611c99614806565b5b6020026020010151604051611caf919061496f565b90815260200160405180910390208054611cc8906149b5565b80601f0160208091040260200160405190810160405280929190818152602001828054611cf4906149b5565b8015611d415780601f10611d1657610100808354040283529160200191611d41565b820191906000526020600020905b815481529060010190602001808311611d2457829003601f168201915b5050505050848381518110611d5957611d58614806565b5b60200260200101518281518110611d7357611d72614806565b5b60200260200101819052508080611d8990614ac4565b915050611be8565b508080611d9d90614ac4565b9150506118fd565b50509193909250565b60016002811115611dc257611dc1613f5f565b5b6000803373ffffffffffffffffffffffffffffffffffffffff1673ffffffffffffffffffffffffffffffffffffffff16815260200190815260200160002060009054906101000a900460ff166002811115611e2057611e1f613f5f565b5b14611e60576040517f08c379a0000000000000000000000000000000000000000000000000000000008152600401611e579061477a565b60405180910390fd5b8051825114611ea4576040517f08c379a0000000000000000000000000000000000000000000000000000000008152600401611e9b90614ee5565b60405180910390fd5b6000600260003373ffffffffffffffffffffffffffffffffffffffff1673ffffffffffffffffffffffffffffffffffffffff168152602001908152602001600020600181600181540180825580915050039060005260206000209060030201905083816000019081611f169190614d0f565b5082816001019080519060200190611f2f929190613824565b5060005b8351811015611fb157828181518110611f4f57611f4e614806565b5b602002602001015182600201858381518110611f6e57611f6d614806565b5b6020026020010151604051611f83919061496f565b90815260200160405180910390209081611f9d9190614d0f565b508080611fa990614ac4565b915050611f33565b5050505050565b606060016002811115611fce57611fcd613f5f565b5b6000803373ffffffffffffffffffffffffffffffffffffffff1673ffffffffffffffffffffffffffffffffffffffff16815260200190815260200160002060009054906101000a900460ff16600281111561202c5761202b613f5f565b5b1461206c576040517f08c379a00000000000000000000000000000000000000000000000000000000081526004016120639061477a565b60405180910390fd5b3373ffffffffffffffffffffffffffffffffffffffff168273ffffffffffffffffffffffffffffffffffffffff16146120da576040517f08c379a00000000000000000000000000000000000000000000000000000000081526004016120d190614f77565b60405180910390fd5b600160008373ffffffffffffffffffffffffffffffffffffffff1673ffffffffffffffffffffffffffffffffffffffff168152602001908152602001600020805480602002602001604051908101604052809291908181526020016000905b8282101561251957838290600052602060002090600502016040518060c001604052908160008201805461216c906149b5565b80601f0160208091040260200160405190810160405280929190818152602001828054612198906149b5565b80156121e55780601f106121ba576101008083540402835291602001916121e5565b820191906000526020600020905b8154815290600101906020018083116121c857829003601f168201915b505050505081526020016001820160009054906101000a900473ffffffffffffffffffffffffffffffffffffffff1673ffffffffffffffffffffffffffffffffffffffff1673ffffffffffffffffffffffffffffffffffffffff1681526020016001820160149054906101000a900460ff16600281111561226957612268613f5f565b5b600281111561227b5761227a613f5f565b5b815260200160028201805480602002602001604051908101604052809291908181526020016000905b828210156123505783829060005260206000200180546122c3906149b5565b80601f01602080910402602001604051908101604052809291908181526020018280546122ef906149b5565b801561233c5780601f106123115761010080835404028352916020019161233c565b820191906000526020600020905b81548152906001019060200180831161231f57829003601f168201915b5050505050815260200190600101906122a4565b50505050815260200160038201805480602002602001604051908101604052809291908181526020016000905b8282101561242957838290600052602060002001805461239c906149b5565b80601f01602080910402602001604051908101604052809291908181526020018280546123c8906149b5565b80156124155780601f106123ea57610100808354040283529160200191612415565b820191906000526020600020905b8154815290600101906020018083116123f857829003601f168201915b50505050508152602001906001019061237d565b50505050815260200160048201805480602002602001604051908101604052809291908181526020016000905b82821015612502578382906000526020600020018054612475906149b5565b80601f01602080910402602001604051908101604052809291908181526020018280546124a1906149b5565b80156124ee5780601f106124c3576101008083540402835291602001916124ee565b820191906000526020600020905b8154815290600101906020018083116124d157829003601f168201915b505050505081526020019060010190612456565b505050508152505081526020019060010190612139565b505050509050919050565b6001600281111561253857612537613f5f565b5b6000803373ffffffffffffffffffffffffffffffffffffffff1673ffffffffffffffffffffffffffffffffffffffff16815260200190815260200160002060009054906101000a900460ff16600281111561259657612595613f5f565b5b146125d6576040517f08c379a00000000000000000000000000000000000000000000000000000000081526004016125cd9061477a565b60405180910390fd5b600160003373ffffffffffffffffffffffffffffffffffffffff1673ffffffffffffffffffffffffffffffffffffffff16815260200190815260200160002080549050811061265a576040517f08c379a0000000000000000000000000000000000000000000000000000000008152600401612651906147e6565b60405180910390fd5b6000600160003373ffffffffffffffffffffffffffffffffffffffff1673ffffffffffffffffffffffffffffffffffffffff16815260200190815260200160002082815481106126ad576126ac614806565b5b90600052602060002090600502019050600060028111156126d1576126d0613f5f565b5b8160010160149054906101000a900460ff1660028111156126f5576126f4613f5f565b5b14612735576040517f08c379a000000000000000000000000000000000000000000000000000000000815260040161272c90614881565b60405180910390fd5b60018160010160146101000a81548160ff0219169083600281111561275d5761275c613f5f565b5b021790555060005b600260003373ffffffffffffffffffffffffffffffffffffffff1673ffffffffffffffffffffffffffffffffffffffff16815260200190815260200160002080549050811015612b7e57816000016040516020016127c39190614a7e565b60405160208183030381529060405280519060200120600260003373ffffffffffffffffffffffffffffffffffffffff1673ffffffffffffffffffffffffffffffffffffffff168152602001908152602001600020828154811061282a57612829614806565b5b906000526020600020906003020160000160405160200161284b9190614a7e565b6040516020818303038152906040528051906020012003612b6b5760005b8260030180549050811015612b655760008360030182815481106128905761288f614806565b5b9060005260206000200180546128a5906149b5565b80601f01602080910402602001604051908101604052809291908181526020018280546128d1906149b5565b801561291e5780601f106128f35761010080835404028352916020019161291e565b820191906000526020600020905b81548152906001019060200180831161290157829003601f168201915b505050505090506000600260003373ffffffffffffffffffffffffffffffffffffffff1673ffffffffffffffffffffffffffffffffffffffff168152602001908152602001600020848154811061297857612977614806565b5b906000526020600020906003020160020182604051612997919061496f565b908152602001604051809103902080546129b0906149b5565b80601f01602080910402602001604051908101604052809291908181526020018280546129dc906149b5565b8015612a295780601f106129fe57610100808354040283529160200191612a29565b820191906000526020600020905b815481529060010190602001808311612a0c57829003601f168201915b505050505090508460040181908060018154018082558091505060019003906000526020600020016000909190919091509081612a669190614d0f565b5080600360008760010160009054906101000a900473ffffffffffffffffffffffffffffffffffffffff1673ffffffffffffffffffffffffffffffffffffffff1673ffffffffffffffffffffffffffffffffffffffff16815260200190815260200160002060003373ffffffffffffffffffffffffffffffffffffffff1673ffffffffffffffffffffffffffffffffffffffff16815260200190815260200160002086600001604051612b199190614a7e565b908152602001604051809103902083604051612b35919061496f565b90815260200160405180910390209081612b4f9190614d0f565b5050508080612b5d90614ac4565b915050612869565b50612b7e565b8080612b7690614ac4565b915050612765565b505050565b60046020528160005260406000208181548110612b9f57600080fd5b9060005260206000209060020201600091509150508060000160009054906101000a900473ffffffffffffffffffffffffffffffffffffffff16908060010154905082565b6060600280811115612bf957612bf8613f5f565b5b6000803373ffffffffffffffffffffffffffffffffffffffff1673ffffffffffffffffffffffffffffffffffffffff16815260200190815260200160002060009054906101000a900460ff166002811115612c5757612c56613f5f565b5b14612c97576040517f08c379a0000000000000000000000000000000000000000000000000000000008152600401612c8e90614913565b60405180910390fd5b6000600460003373ffffffffffffffffffffffffffffffffffffffff1673ffffffffffffffffffffffffffffffffffffffff16815260200190815260200160002080549050905060008167ffffffffffffffff811115612cfa57612cf9613a22565b5b604051908082528060200260200182016040528015612d3357816020015b612d2061387d565b815260200190600190039081612d185790505b50905060005b82811015613216576000600460003373ffffffffffffffffffffffffffffffffffffffff1673ffffffffffffffffffffffffffffffffffffffff1681526020019081526020016000208281548110612d9457612d93614806565b5b90600052602060002090600202019050600160008260000160009054906101000a900473ffffffffffffffffffffffffffffffffffffffff1673ffffffffffffffffffffffffffffffffffffffff1673ffffffffffffffffffffffffffffffffffffffff168152602001908152602001600020816001015481548110612e1d57612e1c614806565b5b90600052602060002090600502016040518060c0016040529081600082018054612e46906149b5565b80601f0160208091040260200160405190810160405280929190818152602001828054612e72906149b5565b8015612ebf5780601f10612e9457610100808354040283529160200191612ebf565b820191906000526020600020905b815481529060010190602001808311612ea257829003601f168201915b505050505081526020016001820160009054906101000a900473ffffffffffffffffffffffffffffffffffffffff1673ffffffffffffffffffffffffffffffffffffffff1673ffffffffffffffffffffffffffffffffffffffff1681526020016001820160149054906101000a900460ff166002811115612f4357612f42613f5f565b5b6002811115612f5557612f54613f5f565b5b815260200160028201805480602002602001604051908101604052809291908181526020016000905b8282101561302a578382906000526020600020018054612f9d906149b5565b80601f0160208091040260200160405190810160405280929190818152602001828054612fc9906149b5565b80156130165780601f10612feb57610100808354040283529160200191613016565b820191906000526020600020905b815481529060010190602001808311612ff957829003601f168201915b505050505081526020019060010190612f7e565b50505050815260200160038201805480602002602001604051908101604052809291908181526020016000905b82821015613103578382906000526020600020018054613076906149b5565b80601f01602080910402602001604051908101604052809291908181526020018280546130a2906149b5565b80156130ef5780601f106130c4576101008083540402835291602001916130ef565b820191906000526020600020905b8154815290600101906020018083116130d257829003601f168201915b505050505081526020019060010190613057565b50505050815260200160048201805480602002602001604051908101604052809291908181526020016000905b828210156131dc57838290600052602060002001805461314f906149b5565b80601f016020809104026020016040519081016040528092919081815260200182805461317b906149b5565b80156131c85780601f1061319d576101008083540402835291602001916131c8565b820191906000526020600020905b8154815290600101906020018083116131ab57829003601f168201915b505050505081526020019060010190613130565b50505050815250508383815181106131f7576131f6614806565b5b602002602001018190525050808061320e90614ac4565b915050612d39565b50809250505090565b600360205283600052604060002060205282600052604060002082805160208101820180518482526020830160208501208183528095505050505050818051602081018201805184825260208301602085012081835280955050505050506000935093505050508054613291906149b5565b80601f01602080910402602001604051908101604052809291908181526020018280546132bd906149b5565b801561330a5780601f106132df5761010080835404028352916020019161330a565b820191906000526020600020905b8154815290600101906020018083116132ed57829003601f168201915b505050505081565b6001600281111561332657613325613f5f565b5b6000803373ffffffffffffffffffffffffffffffffffffffff1673ffffffffffffffffffffffffffffffffffffffff16815260200190815260200160002060009054906101000a900460ff16600281111561338457613383613f5f565b5b146133c4576040517f08c379a00000000000000000000000000000000000000000000000000000000081526004016133bb9061477a565b60405180910390fd5b600160003373ffffffffffffffffffffffffffffffffffffffff1673ffffffffffffffffffffffffffffffffffffffff168152602001908152602001600020805490508210613448576040517f08c379a000000000000000000000000000000000000000000000000000000000815260040161343f906147e6565b60405180910390fd5b6000600160003373ffffffffffffffffffffffffffffffffffffffff1673ffffffffffffffffffffffffffffffffffffffff168152602001908152602001600020838154811061349b5761349a614806565b5b90600052602060002090600502019050600160028111156134bf576134be613f5f565b5b8160010160149054906101000a900460ff1660028111156134e3576134e2613f5f565b5b14613523576040517f08c379a000000000000000000000000000000000000000000000000000000000815260040161351a90614fe3565b60405180910390fd5b60005b825181101561381e5760005b826003018054905081101561380a5783828151811061355457613553614806565b5b602002602001015160405160200161356c919061496f565b6040516020818303038152906040528051906020012083600301828154811061359857613597614806565b5b906000526020600020016040516020016135b29190614a7e565b60405160208183030381529060405280519060200120036137f75782600301600184600301805490506135e59190615003565b815481106135f6576135f5614806565b5b9060005260206000200183600301828154811061361657613615614806565b5b90600052602060002001908161362c9190615062565b50826003018054806136415761364061514a565b5b60019003818190600052602060002001600061365d91906138db565b905582600401600184600401805490506136779190615003565b8154811061368857613687614806565b5b906000526020600020018360040182815481106136a8576136a7614806565b5b9060005260206000200190816136be9190615062565b50826004018054806136d3576136d261514a565b5b6001900381819060005260206000200160006136ef91906138db565b9055600360008460010160009054906101000a900473ffffffffffffffffffffffffffffffffffffffff1673ffffffffffffffffffffffffffffffffffffffff1673ffffffffffffffffffffffffffffffffffffffff16815260200190815260200160002060003373ffffffffffffffffffffffffffffffffffffffff1673ffffffffffffffffffffffffffffffffffffffff168152602001908152602001600020836000016040516137a29190614a7e565b90815260200160405180910390208483815181106137c3576137c2614806565b5b60200260200101516040516137d8919061496f565b908152602001604051809103902060006137f291906138db565b61380a565b808061380290614ac4565b915050613532565b50808061381690614ac4565b915050613526565b50505050565b82805482825590600052602060002090810192821561386c579160200282015b8281111561386b57825182908161385b9190614d0f565b5091602001919060010190613844565b5b509050613879919061391b565b5090565b6040518060c0016040528060608152602001600073ffffffffffffffffffffffffffffffffffffffff168152602001600060028111156138c0576138bf613f5f565b5b81526020016060815260200160608152602001606081525090565b5080546138e7906149b5565b6000825580601f106138f95750613918565b601f016020900490600052602060002090810190613917919061393f565b5b50565b5b8082111561393b576000818161393291906138db565b5060010161391c565b5090565b5b80821115613958576000816000905550600101613940565b5090565b6000604051905090565b600080fd5b600080fd5b600060ff82169050919050565b61398681613970565b811461399157600080fd5b50565b6000813590506139a38161397d565b92915050565b6000602082840312156139bf576139be613966565b5b60006139cd84828501613994565b91505092915050565b6000819050919050565b6139e9816139d6565b81146139f457600080fd5b50565b600081359050613a06816139e0565b92915050565b600080fd5b6000601f19601f8301169050919050565b7f4e487b7100000000000000000000000000000000000000000000000000000000600052604160045260246000fd5b613a5a82613a11565b810181811067ffffffffffffffff82111715613a7957613a78613a22565b5b80604052505050565b6000613a8c61395c565b9050613a988282613a51565b919050565b600067ffffffffffffffff821115613ab857613ab7613a22565b5b602082029050602081019050919050565b600080fd5b600080fd5b600067ffffffffffffffff821115613aee57613aed613a22565b5b613af782613a11565b9050602081019050919050565b82818337600083830152505050565b6000613b26613b2184613ad3565b613a82565b905082815260208101848484011115613b4257613b41613ace565b5b613b4d848285613b04565b509392505050565b600082601f830112613b6a57613b69613a0c565b5b8135613b7a848260208601613b13565b91505092915050565b6000613b96613b9184613a9d565b613a82565b90508083825260208201905060208402830185811115613bb957613bb8613ac9565b5b835b81811015613c0057803567ffffffffffffffff811115613bde57613bdd613a0c565b5b808601613beb8982613b55565b85526020850194505050602081019050613bbb565b5050509392505050565b600082601f830112613c1f57613c1e613a0c565b5b8135613c2f848260208601613b83565b91505092915050565b60008060408385031215613c4f57613c4e613966565b5b6000613c5d858286016139f7565b925050602083013567ffffffffffffffff811115613c7e57613c7d61396b565b5b613c8a85828601613c0a565b9150509250929050565b600073ffffffffffffffffffffffffffffffffffffffff82169050919050565b6000613cbf82613c94565b9050919050565b613ccf81613cb4565b8114613cda57600080fd5b50565b600081359050613cec81613cc6565b92915050565b60008060408385031215613d0957613d08613966565b5b6000613d1785828601613cdd565b925050602083013567ffffffffffffffff811115613d3857613d3761396b565b5b613d4485828601613b55565b9150509250929050565b600081519050919050565b600082825260208201905092915050565b6000819050602082019050919050565b600081519050919050565b600082825260208201905092915050565b60005b83811015613db4578082015181840152602081019050613d99565b60008484015250505050565b6000613dcb82613d7a565b613dd58185613d85565b9350613de5818560208601613d96565b613dee81613a11565b840191505092915050565b6000613e058383613dc0565b905092915050565b6000602082019050919050565b6000613e2582613d4e565b613e2f8185613d59565b935083602082028501613e4185613d6a565b8060005b85811015613e7d5784840389528151613e5e8582613df9565b9450613e6983613e0d565b925060208a01995050600181019050613e45565b50829750879550505050505092915050565b60006040820190508181036000830152613ea98185613e1a565b90508181036020830152613ebd8184613e1a565b90509392505050565b60008060408385031215613edd57613edc613966565b5b6000613eeb85828601613cdd565b9250506020613efc858286016139f7565b9150509250929050565b600082825260208201905092915050565b6000613f2282613d7a565b613f2c8185613f06565b9350613f3c818560208601613d96565b613f4581613a11565b840191505092915050565b613f5981613cb4565b82525050565b7f4e487b7100000000000000000000000000000000000000000000000000000000600052602160045260246000fd5b60038110613f9f57613f9e613f5f565b5b50565b6000819050613fb082613f8e565b919050565b6000613fc082613fa2565b9050919050565b613fd081613fb5565b82525050565b60006060820190508181036000830152613ff08186613f17565b9050613fff6020830185613f50565b61400c6040830184613fc7565b949350505050565b60008060006060848603121561402d5761402c613966565b5b600061403b86828701613cdd565b935050602084013567ffffffffffffffff81111561405c5761405b61396b565b5b61406886828701613b55565b925050604084013567ffffffffffffffff8111156140895761408861396b565b5b61409586828701613c0a565b9150509250925092565b600080600080608085870312156140b9576140b8613966565b5b60006140c787828801613cdd565b94505060206140d887828801613cdd565b935050604085013567ffffffffffffffff8111156140f9576140f861396b565b5b61410587828801613b55565b925050606085013567ffffffffffffffff8111156141265761412561396b565b5b61413287828801613b55565b91505092959194509250565b600060208201905081810360008301526141588184613f17565b905092915050565b60006020828403121561417657614175613966565b5b6000614184848285016139f7565b91505092915050565b6000602082840312156141a3576141a2613966565b5b60006141b184828501613cdd565b91505092915050565b600381106141cb576141ca613f5f565b5b50565b60008190506141dc826141ba565b919050565b60006141ec826141ce565b9050919050565b6141fc816141e1565b82525050565b600060208201905061421760008301846141f3565b92915050565b600081519050919050565b600082825260208201905092915050565b6000819050602082019050919050565b600082825260208201905092915050565b600061426582613d4e565b61426f8185614249565b93508360208202850161428185613d6a565b8060005b858110156142bd578484038952815161429e8582613df9565b94506142a983613e0d565b925060208a01995050600181019050614285565b50829750879550505050505092915050565b60006142db838361425a565b905092915050565b6000602082019050919050565b60006142fb8261421d565b6143058185614228565b93508360208202850161431785614239565b8060005b85811015614353578484038952815161433485826142cf565b945061433f836142e3565b925060208a0199505060018101905061431b565b50829750879550505050505092915050565b6000606082019050818103600083015261437f8186613e1a565b9050818103602083015261439381856142f0565b905081810360408301526143a781846142f0565b9050949350505050565b6000806000606084860312156143ca576143c9613966565b5b600084013567ffffffffffffffff8111156143e8576143e761396b565b5b6143f486828701613b55565b935050602084013567ffffffffffffffff8111156144155761441461396b565b5b61442186828701613c0a565b925050604084013567ffffffffffffffff8111156144425761444161396b565b5b61444e86828701613c0a565b9150509250925092565b600081519050919050565b600082825260208201905092915050565b6000819050602082019050919050565b61448d81613cb4565b82525050565b61449c81613fb5565b82525050565b600060c08301600083015184820360008601526144bf8282613dc0565b91505060208301516144d46020860182614484565b5060408301516144e76040860182614493565b50606083015184820360608601526144ff828261425a565b91505060808301518482036080860152614519828261425a565b91505060a083015184820360a0860152614533828261425a565b9150508091505092915050565b600061454c83836144a2565b905092915050565b6000602082019050919050565b600061456c82614458565b6145768185614463565b93508360208202850161458885614474565b8060005b858110156145c457848403895281516145a58582614540565b94506145b083614554565b925060208a0199505060018101905061458c565b50829750879550505050505092915050565b600060208201905081810360008301526145f08184614561565b905092915050565b614601816139d6565b82525050565b600060408201905061461c6000830185613f50565b61462960208301846145f8565b9392505050565b7f5573657220616c72656164792072656769737465726564000000000000000000600082015250565b6000614666601783613f06565b915061467182614630565b602082019050919050565b6000602082019050818103600083015261469581614659565b9050919050565b7f496e76616c696420726f6c650000000000000000000000000000000000000000600082015250565b60006146d2600c83613f06565b91506146dd8261469c565b602082019050919050565b60006020820190508181036000830152614701816146c5565b9050919050565b7f4f6e6c792075736572732063616e2063616c6c20746869732066756e6374696f60008201527f6e00000000000000000000000000000000000000000000000000000000000000602082015250565b6000614764602183613f06565b915061476f82614708565b604082019050919050565b6000602082019050818103600083015261479381614757565b9050919050565b7f496e76616c6964207265717565737420696e6465780000000000000000000000600082015250565b60006147d0601583613f06565b91506147db8261479a565b602082019050919050565b600060208201905081810360008301526147ff816147c3565b9050919050565b7f4e487b7100000000000000000000000000000000000000000000000000000000600052603260045260246000fd5b7f52657175657374206973206e6f742070656e64696e6700000000000000000000600082015250565b600061486b601683613f06565b915061487682614835565b602082019050919050565b6000602082019050818103600083015261489a8161485e565b9050919050565b7f4f6e6c79207665726966696572732063616e2063616c6c20746869732066756e60008201527f6374696f6e000000000000000000000000000000000000000000000000000000602082015250565b60006148fd602583613f06565b9150614908826148a1565b604082019050919050565b6000602082019050818103600083015261492c816148f0565b9050919050565b600081905092915050565b600061494982613d7a565b6149538185614933565b9350614963818560208601613d96565b80840191505092915050565b600061497b828461493e565b915081905092915050565b7f4e487b7100000000000000000000000000000000000000000000000000000000600052602260045260246000fd5b600060028204905060018216806149cd57607f821691505b6020821081036149e0576149df614986565b5b50919050565b60008190508160005260206000209050919050565b60008154614a08816149b5565b614a128186614933565b94506001821660008114614a2d5760018114614a4257614a75565b60ff1983168652811515820286019350614a75565b614a4b856149e6565b60005b83811015614a6d57815481890152600182019150602081019050614a4e565b838801955050505b50505092915050565b6000614a8a82846149fb565b915081905092915050565b7f4e487b7100000000000000000000000000000000000000000000000000000000600052601160045260246000fd5b6000614acf826139d6565b91507fffffffffffffffffffffffffffffffffffffffffffffffffffffffffffffffff8203614b0157614b00614a95565b5b600182019050919050565b7f496e76616c696420757365722061646472657373000000000000000000000000600082015250565b6000614b42601483613f06565b9150614b4d82614b0c565b602082019050919050565b60006020820190508181036000830152614b7181614b35565b9050919050565b60006020601f8301049050919050565b600082821b905092915050565b600060088302614bc57fffffffffffffffffffffffffffffffffffffffffffffffffffffffffffffffff82614b88565b614bcf8683614b88565b95508019841693508086168417925050509392505050565b6000819050919050565b6000614c0c614c07614c02846139d6565b614be7565b6139d6565b9050919050565b6000819050919050565b614c2683614bf1565b614c3a614c3282614c13565b848454614b95565b825550505050565b600090565b614c4f614c42565b614c5a818484614c1d565b505050565b5b81811015614c7e57614c73600082614c47565b600181019050614c60565b5050565b601f821115614cc357614c94816149e6565b614c9d84614b78565b81016020851015614cac578190505b614cc0614cb885614b78565b830182614c5f565b50505b505050565b600082821c905092915050565b6000614ce660001984600802614cc8565b1980831691505092915050565b6000614cff8383614cd5565b9150826002028217905092915050565b614d1882613d7a565b67ffffffffffffffff811115614d3157614d30613a22565b5b614d3b82546149b5565b614d46828285614c82565b600060209050601f831160018114614d795760008415614d67578287015190505b614d718582614cf3565b865550614dd9565b601f198416614d87866149e6565b60005b82811015614daf57848901518255600182019150602085019450602081019050614d8a565b86831015614dcc5784890151614dc8601f891682614cd5565b8355505b6001600288020188555050505b505050505050565b7f596f752063616e206f6e6c7920726574726965766520796f7572206f776e206460008201527f6f63756d656e7473000000000000000000000000000000000000000000000000602082015250565b6000614e3d602883613f06565b9150614e4882614de1565b604082019050919050565b60006020820190508181036000830152614e6c81614e30565b9050919050565b7f4b65797320616e642076616c756573206d75737420686176652074686520736160008201527f6d65206c656e6774680000000000000000000000000000000000000000000000602082015250565b6000614ecf602983613f06565b9150614eda82614e73565b604082019050919050565b60006020820190508181036000830152614efe81614ec2565b9050919050565b7f596f752063616e206f6e6c7920726574726965766520796f7572206f776e207260008201527f6571756573747300000000000000000000000000000000000000000000000000602082015250565b6000614f61602783613f06565b9150614f6c82614f05565b604082019050919050565b60006020820190508181036000830152614f9081614f54565b9050919050565b7f52657175657374206973206e6f7420617070726f766564000000000000000000600082015250565b6000614fcd601783613f06565b9150614fd882614f97565b602082019050919050565b60006020820190508181036000830152614ffc81614fc0565b9050919050565b600061500e826139d6565b9150615019836139d6565b925082820390508181111561503157615030614a95565b5b92915050565b600081549050615046816149b5565b9050919050565b60008190508160005260206000209050919050565b818103615070575050615148565b61507982615037565b67ffffffffffffffff81111561509257615091613a22565b5b61509c82546149b5565b6150a7828285614c82565b6000601f8311600181146150d657600084156150c4578287015490505b6150ce8582614cf3565b865550615141565b601f1984166150e48761504d565b96506150ef866149e6565b60005b82811015615117578489015482556001820191506001850194506020810190506150f2565b868310156151345784890154615130601f891682614cd5565b8355505b6001600288020188555050505b5050505050505b565b7f4e487b7100000000000000000000000000000000000000000000000000000000600052603160045260246000fdfea26469706673582212205fc626b6e6e0983b4794ab41e67773f538799c0fad391ad5f4248efb62cd962c64736f6c63430008130033",
  "immutableReferences": {},
  "source": "pragma solidity ^0.8.19;\r\n\r\n// SPDX-License-Identifier: MIT\r\n\r\ncontract DocumentSharingContract {\r\n    enum UserRole { None, User, Verifier }\r\n    enum RequestStatus { Pending, Approved, Rejected }\r\n\r\n    mapping(address => UserRole) public userRoles;\r\n\r\n   struct DocumentRequest {\r\n    string documentType;\r\n    address verifier;\r\n    RequestStatus status;\r\n    string[] requestedAttributes;\r\n    string[] approvedAttributeKeys;\r\n    string[] approvedAttributeValues;\r\n}\r\n\r\n    struct DocumentInfo {\r\n    string documentType;\r\n    string[] keys;\r\n    mapping(string => string) attributes;\r\n}\r\nstruct VerifierRequestInfo {\r\n    address user;\r\n    uint256 requestIndex;\r\n}\r\n\r\n    mapping(address => DocumentRequest[]) public userRequests;\r\n    mapping(address => DocumentInfo[]) public userDocuments;\r\n    \r\n    mapping(address => mapping(address => mapping(string => mapping(string => string)))) public verifierDocumentAccess;\r\n\r\n   mapping(address => VerifierRequestInfo[]) public verifierRequestsMapping;\r\n\r\n\r\n\r\n    modifier onlyUser() {\r\n        require(userRoles[msg.sender] == UserRole.User, \"Only users can call this function\");\r\n        _;\r\n    }\r\n\r\n    modifier onlyVerifier() {\r\n        require(userRoles[msg.sender] == UserRole.Verifier, \"Only verifiers can call this function\");\r\n        _;\r\n    }\r\n\r\n    function registerUser(uint8 role) public {\r\n        require(userRoles[msg.sender] == UserRole.None, \"User already registered\");\r\n        require(role >= uint8(UserRole.None) && role <= uint8(UserRole.Verifier), \"Invalid role\");\r\n        userRoles[msg.sender] = UserRole(role);\r\n    }\r\n\r\n    function requestDocumentAccess(address user, string memory documentType, string[] memory attributes)\r\n    public onlyVerifier\r\n{\r\n    require(userRoles[user] == UserRole.User, \"Invalid user address\");\r\n\r\n    uint256 requestIndex = userRequests[user].length;\r\n    userRequests[user].push(DocumentRequest({\r\n        documentType: documentType,\r\n        verifier: msg.sender,\r\n        status: RequestStatus.Pending,\r\n        requestedAttributes: attributes,\r\n        approvedAttributeKeys: new string[](0),\r\n        approvedAttributeValues: new string[](0)\r\n    }));\r\n    \r\n    VerifierRequestInfo memory verifierRequestInfo = VerifierRequestInfo({\r\n        user: user,\r\n        requestIndex: requestIndex\r\n    });\r\n    verifierRequestsMapping[msg.sender].push(verifierRequestInfo);\r\n}\r\n\r\n\r\n\r\n  function updateDocumentAccess(uint256 requestIndex, string[] memory approvedKeys) public onlyUser {\r\n    require(requestIndex < userRequests[msg.sender].length, \"Invalid request index\");\r\n    DocumentRequest storage request = userRequests[msg.sender][requestIndex];\r\n    require(request.status == RequestStatus.Pending, \"Request is not pending\");\r\n    request.approvedAttributeKeys = approvedKeys; // Save approved keys\r\n}\r\n\r\n// Function to approve the document access request\r\nfunction approveDocumentAccess(uint256 requestIndex) public onlyUser {\r\n    require(requestIndex < userRequests[msg.sender].length, \"Invalid request index\");\r\n    DocumentRequest storage request = userRequests[msg.sender][requestIndex];\r\n    require(request.status == RequestStatus.Pending, \"Request is not pending\");\r\n\r\n    request.status = RequestStatus.Approved;\r\n\r\n    // Iterate through user's documents to find the requested document\r\n    for (uint256 i = 0; i < userDocuments[msg.sender].length; i++) {\r\n        if (keccak256(abi.encodePacked(userDocuments[msg.sender][i].documentType)) == keccak256(abi.encodePacked(request.documentType))) {\r\n            // Found the document, now copy the approved attributes\r\n            for (uint256 j = 0; j < request.approvedAttributeKeys.length; j++) {\r\n                string memory key = request.approvedAttributeKeys[j];\r\n                string memory value = userDocuments[msg.sender][i].attributes[key];\r\n                request.approvedAttributeValues.push(value);\r\n                verifierDocumentAccess[request.verifier][msg.sender][request.documentType][key] = value;\r\n            }\r\n            break;\r\n        }\r\n    }\r\n}\r\n\r\n    function rejectDocumentAccess(uint256 requestIndex)\r\n        public onlyUser\r\n    {\r\n        require(userRequests[msg.sender].length > requestIndex, \"Invalid request index\");\r\n        require(userRequests[msg.sender][requestIndex].status == RequestStatus.Pending, \"Request is not pending\");\r\n        userRequests[msg.sender][requestIndex].status = RequestStatus.Rejected;\r\n    }\r\n\r\n    function addDocument(string memory documentType, string[] memory keys, string[] memory values)\r\n        public onlyUser\r\n    {\r\n        require(keys.length == values.length, \"Keys and values must have the same length\");\r\n        DocumentInfo storage documentInfo = userDocuments[msg.sender].push();\r\n        documentInfo.documentType = documentType;\r\n        documentInfo.keys = keys;\r\n        for (uint256 i = 0; i < keys.length; i++) {\r\n            documentInfo.attributes[keys[i]] = values[i];\r\n        }\r\n    }\r\n\r\n    function revokeDocumentAttributes(uint256 requestIndex, string[] memory keysToRevoke) public onlyUser {\r\n    require(requestIndex < userRequests[msg.sender].length, \"Invalid request index\");\r\n    DocumentRequest storage request = userRequests[msg.sender][requestIndex];\r\n    require(request.status == RequestStatus.Approved, \"Request is not approved\");\r\n\r\n    for (uint256 k = 0; k < keysToRevoke.length; k++) {\r\n        // For each key to revoke, find the attribute in the approvedAttributeKeys array and remove it.\r\n        for (uint256 i = 0; i < request.approvedAttributeKeys.length; i++) {\r\n            if (keccak256(abi.encodePacked(request.approvedAttributeKeys[i])) == keccak256(abi.encodePacked(keysToRevoke[k]))) {\r\n                request.approvedAttributeKeys[i] = request.approvedAttributeKeys[request.approvedAttributeKeys.length - 1];\r\n                request.approvedAttributeKeys.pop();\r\n\r\n                request.approvedAttributeValues[i] = request.approvedAttributeValues[request.approvedAttributeValues.length - 1];\r\n                request.approvedAttributeValues.pop();\r\n\r\n                // Remove the access from the verifierDocumentAccess mapping.\r\n                delete verifierDocumentAccess[request.verifier][msg.sender][request.documentType][keysToRevoke[k]];\r\n                \r\n              \r\n                break;\r\n            }\r\n        }\r\n    }\r\n}\r\n\r\n\r\n    function getUserDocuments(address user) public view onlyUser returns (string[] memory documentTypes, string[][] memory keys, string[][] memory values) {\r\n    require(user == msg.sender, \"You can only retrieve your own documents\");\r\n    uint256 length = userDocuments[user].length;\r\n    documentTypes = new string[](length);\r\n    keys = new string[][](length);\r\n    values = new string[][](length);\r\n\r\n    for (uint256 i = 0; i < length; i++) {\r\n        documentTypes[i] = userDocuments[user][i].documentType;\r\n        keys[i] = userDocuments[user][i].keys;\r\n        values[i] = new string[](keys[i].length);\r\n        for (uint256 j = 0; j < keys[i].length; j++) {\r\n            values[i][j] = userDocuments[user][i].attributes[keys[i][j]];\r\n        }\r\n    }\r\n\r\n    return (documentTypes, keys, values);\r\n}\r\n\r\n    function getDocumentAttribute(address verifier, address user, string memory documentType, string memory key)\r\n        public view returns (string memory)\r\n    {\r\n        return verifierDocumentAccess[verifier][user][documentType][key];\r\n    }\r\n\r\n  function getVerifierRequests() public view onlyVerifier returns (DocumentRequest[] memory) {\r\n    uint256 length = verifierRequestsMapping[msg.sender].length;\r\n    DocumentRequest[] memory requests = new DocumentRequest[](length);\r\n\r\n    for (uint256 i = 0; i < length; i++) {\r\n        VerifierRequestInfo storage info = verifierRequestsMapping[msg.sender][i];\r\n        \r\n        requests[i] = userRequests[info.user][info.requestIndex];\r\n    }\r\n\r\n    return requests;\r\n}\r\n\r\n\r\nfunction getApprovedData(address user, string memory documentType) public view onlyVerifier returns (string[] memory keys, string[] memory values) {\r\n    DocumentInfo[] storage documents = userDocuments[user];\r\n    for (uint256 i = 0; i < documents.length; i++) {\r\n        if (keccak256(abi.encodePacked(documents[i].documentType)) == keccak256(abi.encodePacked(documentType))) {\r\n            keys = documents[i].keys;\r\n            values = new string[](keys.length);\r\n            for (uint256 j = 0; j < keys.length; j++) {\r\n                values[j] = verifierDocumentAccess[msg.sender][user][documentType][keys[j]];\r\n            }\r\n            break;\r\n        }\r\n    }\r\n    return (keys, values);\r\n}\r\n\r\n\r\n    function getUserRequests(address user) public view onlyUser returns (DocumentRequest[] memory) {\r\n    require(user == msg.sender, \"You can only retrieve your own requests\");\r\n    return userRequests[user];\r\n}\r\n\r\n}\r\n",
  "sourcePath": "C:\\Users\\vassh\\Desktop\\identity-management\\contracts\\DynamicContract.sol",
  "compiler": {
    "name": "solc",
    "version": "0.8.19+commit.7dd6d404.Emscripten.clang"
  },
  "schemaVersion": "3.4.14",
  "updatedAt": "2023-08-17T10:39:34.769Z",
  "networkType": "ethereum",
  "devdoc": {
    "kind": "dev",
    "methods": {},
    "version": 1
  },
  "userdoc": {
    "kind": "user",
    "methods": {},
    "version": 1
  }
}